:020000040800F2
:20000000001000208D140008891400088714000887140008871400088714000800000000D6
:2000200000000000000000000000000089140008891400080000000089140008891400082C
:20004000871400088714000887140008871400088714000887140008871400088714000888
:20006000871400088714000887140008871400088714000887140008871400088714000868
:20008000871400088714000887140008871400088714000887140008871400088714000848
:2000A000871400088714000887140008871400088714000887140008871400088714000828
:2000C000871400088714000887140008871400088714000887140008871400088714000808
:2000E0008714000887140008871400088714000887140008871400088714000887140008E8
:200100008714000887140008871400088714000887140008871400088714000887140008C7
:200120008714000887140008871400088714000887140008871400088714000887140008A7
:20014000871400088714000887140008871400084A2D4C696E6B204F422D53544D33324691
:2001600031303320563120636F6D70696C65642046656220203520323031342042544C202C
:200180002020202000436F7079726967687420323030332D32303133205345474745523A37
:2001A000207777772E7365676765722E636F6D0000000000000000000000000000000000A2
:2001C000F0B50346014441F20804104642F2100544F2200648F240078B4200D1F0BD13F8DB
:2001E000012B4240000A40EA022290B2D20548BF6040820548BF6840420548BF70400205FE
:2002000048BF7840C20448BF80F08100820448BF80F48170420448BF80F40170020448BF30
:2002200080F48160D8E7000013B504460D4B022200930121402300F0B3FC0B4B0222009358
:2002400081214023204600F0ABFC0022074BC3F82028C3F80C28C3F81828C3F8242802B082
:2002600010BD00BFA9030008710200081800002038B5114CD4F81838402B15D1D4F81428CC
:200280003F2A98BFD4F81438D4F81058D4F81428C4F81838D4F81418AA1AC91AC4F81418B7
:2002A0009BB2812100F09CFCD4F824380A2B84BF0A23C4F8243838BD180000204FF6FF7100
:2002C00080230846F0B5C1B0013B9BB2834233D199421ED100232E4A2E4932F8020B8A42E6
:2002E00080EA4303F9D100242B4A9BB21A44009220232246294E2A4FB05C38BB00F0B0FA7A
:2003000080244FF6FF75013CA4B2AC4232D100F0B3FA4FF6FF72234C23889BB2934235D167
:2003200000F09EFA4FF48071204600F031FA41B0BDE8F04000F0A0BA5A0002F1006202F5CA
:20034000FE3212882DF813001140BDE7B91891F83550991885EA000C0DF801C0854202F11B
:20036000010189B204D123440C460F339B1A9BB20A46C1E73DF81410A942C4D0600000F14D
:20038000006000F5FE3000F003FABCE741B0F0BDE8F7FF1FF4F7FF1FA488D2230C1C000855
:2003A0005001000800F8010800232DE9F043914D85B0D5F80C6807462C46CDE90233002E4B
:2003C00000F09F80D5F808684023C6F30A062E443246012100F00BFC0546002800F0B78008
:2003E000D4F80C38D4F80888984228BF1D465B1B08EB0502C4F80828C4F80C38D4F82038ED
:20040000002B3BD0B4F81C282946304692B2FFF7D7FE33464FF0040CA4F81C0825F0030121
:200420007548DFF8ECE1DFF8EC9131448B422FD1D4F80C38002B47D1B4F81E28A5F10209DF
:2004400092B249463046FFF7BBFEA4F81E08B4F81E28B4F81C3853409BB226F80930002297
:200460004FF6FF7908F1006825F0010508F58048023D002D32DA0AB100F0FEF9D4F80C3854
:20048000002B64D1FA22C4F824280393012352E01A68824208BFA4F804C8B4F8042892B25B
:2004A00082B1B4F80428013A92B2A4F804281A68724507D1B4F80628013292B2A4F80628BE
:2004C000C3F800900433B1E7B4F81E282946304692B2FFF775FEA4F81E08C0E7735B9BB2FA
:2004E0004B45ADF806300AD00AB900F0B9F9BDF8061008EB050089B200F04AF90122023DBF
:20050000B7E70423012102AA00F071FBF8B1029B43EA0070394B98425DD012D8384B984237
:2005200018D0053398424DD00023C4F82038C4F80C38012303938121384603AA00F050FBAB
:2005400005E0304B9842EFD10123C5F8203805B0BDE8F0834023C5F82068C5F80C68C5F805
:2005600018387023C5F81438D5F81428264B1344C5F81038D5F8143803930223DBE735F8F6
:200580001610334689B201EA020632465E1EB6B24645F4D1424506D000F062F9284600F0DC
:2005A00025F900F069F905F580654D4507D10023A4F80438A4F80638C4F8203865E74FF40A
:2005C0000073E2E74FF6FF724FF4007390460F4DDFF84490DAE7D5F82038002BB7D04FF4BB
:2005E000DC33C5F80C38C5F80868A5F81C68A5F81E68ACE71800002000F8FF1F0600002073
:200600000100001000F800205001000800400008082002400420024000F80108F0B5002476
:2006200087B040F20230059400F070FA4FF4007322462146404800F02DF94FF480713E484F
:2006400000F059F93D4D012202214FF480733A4800F020F940F2023000F066FA22464FF468
:20066000DC312846FFF7ACFD48B94FF48042344B1A602B6883F30888324B1B68984700F0F9
:20068000FFF940F2023000F041FA4FF4237000F03DFA4FF4407000F039FA2B4A2B4913685C
:2006A0002B4843F00073136080230293294B2A4A019303230093294B00F046FA28490446E2
:2006C00000F022FE4FF400711B4800F012F94FF4007300220221184800F0DCF8214D224EFB
:2006E000154F059B5A1E05920BBBD5F824387BB1D5F82428013AC5F824284AB94FF40073B6
:2007000011460D4800F0C6F8FFF7D8FD00F006FF42F2107233684FF4807113F4807F44F6FA
:20072000206308BF13463846059300F0E7F8204600F032FAD5E700BF0008014000400008A3
:2007400008ED00E00440000804000140D41B00082C1C000840080020A91B00080000002098
:2007600029020008180000200C080140064B10B51C6800F0DBFEB0F5007F82BF034B186823
:20078000044304F0350010BD0C2002404C20024038B504460D4600F077F800F0C7FEB0F5BD
:2007A000007F18D90E4B9C4215D90E4A136843F001031360258000F067F800F0B7FEB0F5E9
:2007C000007F0AD9064B9C4207D9064A136823F00103136038BD044AE8E7034AF6E700BF58
:2007E000FFFF0708502002401020024010B5044600F04AF800F09AFEB0F5007F1DD9134B87
:200800009C421AD9124B1A6842F002021A60114A14601A6842F040021A6000F035F800F02C
:2008200085FEB0F5007F0FD9084B9C420CD9084A136823F00203136010BD074B1A6842F0E8
:2008400002021A60054AE3E7034AF1E7FFFF0708502002405420024010200240142002407F
:20086000034B044A1A6002F188321A60704700BF0420024023016745024A136843F0800312
:20088000136070471020024008B5FFF76FFFC307FBD408BD2DE9F0414FF00F0C0025076808
:2008A000466843FA05F4E4071CD5072D94BFBE46B646ACB24FEA84048ABF203CA4B2A4B281
:2008C0000CFA04F82EEA080804F1020E02FA0EFE01FA04F44EEA040444EA0804072D94BFED
:2008E000274626460135102DDBD107604660BDE8F08101617047090401617047C36801EA88
:20090000030221EA030141EA0241016170470000024A136843F080731360704700100240D3
:20092000062822D8DFE800F004090E13181D1F000F4B1868C0F3406070470D4B1868C0F3E7
:20094000C06070470A4B1868C0F340707047084B1868C0F340407047054B1868C0F3400051
:200960007047044BF9E7044BF7E70020704700BF001002402010024024100240024608B58F
:200980001046FFF7CDFF0028FAD008BD06280CD8DFE800F004060C11161B1D00FFF7B8BFDD
:2009A0000C4A136843F0806313607047094A136843F08053F8E7074A136843F48033F3E7E3
:2009C000044A136843F00103EEE7034AF9E7034AF7E700BF001002402010024024100240F1
:2009E000034A136823F0030303431360704700BF04100240034A136823F4701343EA80433F
:200A00001360704704100240034A136823F4803343EA00431360704704100240034A13680C
:200A200023F4003343EA40431360704704100240034A136823F4404343EA803313607047D0
:200A400004100240034A136823F4605343EAC0231360704704100240034A136823F4E063FC
:200A600043EA00231360704704100240034A136823F0F00343EA0013136070470410024018
:200A800008B50420FFF782FF0420FFF777FF0020FFF7A6FF0320FFF779FF0320FFF76EFF9C
:200AA0000120FFF79DFF0020FFF7E0FF0320FFF7BFFF0420FFF7D0FF0020FFF7C3FF0220D4
:200AC00000F03AFD0720FFF795FF0120FFF79CFF0020FFF7A3FFFFF71BFF0020FFF74EFF61
:200AE0000220FFF77DFF044B044A05491360054A1160054A136008BD00A24A040C000020A1
:200B00000051250210000020140000200122430903F1804303F50433196800F01F0002FA18
:200B200000F00843186070470121430903F1804303F504331A6800F01F0001FA00F022EA6F
:200B400000001860704700002DE9F0411E4603680546884617469847069BC0E90087C36007
:200B6000079BC0F8DC500361BDF8203086608382064B0367064BC366064B83660023C0E960
:200B80003233C0E93433BDE8F08100BF7D0D0008DD0D00085F0E0008D0F8DC305B6A18471A
:200BA00010B4D0F8DC40A468A44610BC604737B5002504460368C582DB792A46294600954F
:200BC000FFF7EEFFD4F8DC3029465B6820469847E3691BB103B0BDE83040184703B030BD04
:200BE00010B4D0F8DC40E469A44610BC604710B4D0F8DC40246AA44610BC6047D0F8DC303C
:200C00001B691847D0F8DC309B691847D0F8DC305B69184710B503680446D979838F826BF8
:200C200099420FD20B460021FFF7DAFF022384F82C302368A26BD979A38F0A445B1AA263D6
:200C4000A38710BD0021FFF7CBFF94F84430002B14BF0223032384F82C30002384F8443088
:200C6000A387A363EDE72DE9F74F04460E46054600F1200A00F1380800F13C0B00F140096D
:200C8000AF6C47B95B4642463146204603B0BDE8F04F00F0A9BB317895F84D2095F84C309C
:200CA00011408B4203D008355545E9D1EAE75B46424631462046CDF80090B8470128F2D894
:200CC00003B0BDE8F08F10B5012200210446FFF795FF002384F82C3010BD70B50368828FF7
:200CE000C48EDB79A41A9C42A8BF1C46816BA6B20A44334600210546FFF779FF864205D067
:200D00002846FFF7E0FF4FF0FF3070BDAB8FA0B21E44AE87F9E738B50369044683638B7965
:200D2000CA790D4643EA02238387FFF79CFF00B3EB88ABB1A28F21689342C9790ED932B113
:200D4000B2FBF1F301FB1322B2FA82F25209204684F84420BDE83840FFF75CBF0022F6E7E3
:200D60001A4619462046FFF73BFF042384F82C3038BD2046BDE83840FFF7A5BF70B5002503
:200D8000044601222946056400F13006FFF73EFFE28E2AB931462046BDE87040FFF7BBBFBF
:200DA00094F93030002BF5DBA38A934204D22046BDE87040FFF787BF2369A587A363236833
:200DC0002946DB792046934234BF052306232A4684F82C30BDE87040FFF718BF10B590F81A
:200DE0002C300446062B12D0072B27D0052B21D1FFF773FF002809DBA28FE38E9B1A22689A
:200E0000D279934202DC062384F82C3010BDFFF764FF0028FADB204604F13001FFF723FF0C
:200E200038B1002320461A461946FFF7D9FE0423EAE72046BDE81040FFF745BF00231A46E4
:200E40001946FFF7D4FE002384F82C30236C1BB1204604F13001984700232364D6E710B57E
:200E600090F82C300446032B07D0042B0ED0022B23D1BDE81040FFF7CDBE0723002280F8D7
:200E80002C301146BDE81040FFF7C0BE036C13B100F13001984794F8303053B994F831301D
:200EA000052B06D1618ED4F8DC3020465B68C9B29847002384F82C3010BDBDE81040FFF72E
:200EC00002BF10B50B7873B94C887F2C0CD8D0F8DC30847593F830201AB149885B68C9B2F8
:200EE0009847012300E00023184610BDF8B50D464988044679B103680D26587C002398420D
:200F000001D80020F8BD626806FB032252798A4203D00133F3E74FF0FF330133DBB2E37531
:200F20004BB9D4F8DC302046DB689847D4F8C8309BB90120E6E70D22534362680D3B134419
:200F40000022104619799142EBD9D3F809101601715801B108700132F4E7002304F1C8060E
:200F6000A3642365A365236604F1D80756F8043B13B1204669889847B742F7D1D9E71988D4
:200F80001268012984BF01211980C37D2BB141680D2000FB031313F8083C01201370704702
:200FA00030B50D24C57D40686C430D3C04448D88207985420CD2012018808B88D4F80900FD
:200FC0001B011B5803B11B7801201268137030BD0020FCE719880120022984BF0221198041
:200FE000002311680B7012685370704710B514461A88022A84BF02221A808988C9B2FFF776
:2010000001FE003818BF0120002223681870236801205A7010BD08B589880122C9B2FFF7C7
:20102000EDFD012008BD08B589880022C9B2FFF7E5FD012008BD0D2270B51C46C37D5A4324
:2010400043680D3A13441D798A88954219D9D3F80950160105EB02124B8812799A4210D974
:20106000AA5952B11370D0F8D83013B14A888988984700230120238070BD002BF3D0104639
:20108000FAE70020F8E72DE9F04F1F464B880646180A0228144689B010D0032800F0ED8050
:2010A000012840F02381336813601B783A88934228BF13463B8009B0BDE8F08F4FF00D08CF
:2010C000DBB208FB03F83269D6F80490226019F808503C8809EB0803A54228BF254602920D
:2010E00019462A460298039300F0B0FC029B641B5E19002319F80880A4B20193039B1A79EB
:20110000BDF804309A4205D8029BA3F802803D800120D0E7019B019A1B010593039BD3F88A
:20112000093003EB0213D3F808A0BAF1000F14D09AF800903046A14528BFA14651464A46EF
:2011400000F084FC9AF80030A4EB09044D4498444E44A4B2ADB21FFA88F800230493039B1C
:20116000059AD3F8093013441979BDF81020914202D8019B0133C0E71521049AD3F80CA08F
:2011800001FB02F91AF809B00AEB0903A34528BFA346194630465A46009300F057FC1AF877
:2011A0000930A4EB0B049844009B5D44D3F80D105E44A4B2ADB21FFA88F8B1B1D3F811A08A
:2011C0003046A245A8BFA2461FFA8AF94A4600F03DFC009BA4EB0904D3F811304D4498445E
:2011E0004E44A4B2ADB21FFA88F84FF00009009B1A791FFA89F39A4202D8049B0133ADE7E7
:20120000009BC9EB091BD3F80930304613F80B2003EB0B0AA24228BF2246514607930692AC
:2012200000F014FC079B069A13F80B30DAF80710A41A154498441644A4B2ADB21FFA88F8A2
:20124000C1B1DAF80B203046A242A8BF22461FFA82FB5A46CDF818B000F0F8FBDAF80B3043
:20126000069AA4EB0B045D4498441644A4B2ADB21FFA88F809F10109B9E713F0FF033569C4
:201280000DD10923AB700423EB702B703B88042B28BF04233B8003236B70256038E7B06894
:2012A000013B00283FF407AFF2689A421EDD40F209428988914219D150F82360304600F034
:2012C0003BFC01304000C0B228703B88984228BF1846002338803A885208013A9A42DADDB5
:2012E000F15C05EB430251800133F4E70020E2E619880120022984BF02211980002311681C
:201300000B701268537070470246002310B500F1C80454F8040B38B1884209D00133042B27
:20132000F7D14FF0FF3010BD323342F82310FAE70020F8E710B44C78092C12D8DFE804F096
:201340000D111111110F0B110905074CA44610BC6047064CFAE7064CF8E7064CF6E7064C6E
:20136000F4E7002010BC7047ED0E00087F0F000887100008D50F0008C30E000810B44C786A
:201380000A2C06D00B2C06D03CB9054CA44610BC6047044CFAE7044CF8E7002010BC70478E
:2013A000F1120008A10F00083710000810B44C78012C04D0032C07D01CB9084C08E04C88A7
:2013C0004CB1002010BC70474C88002CF9D1044CA44610BC6047034CFAE700BFED0F000803
:2013E000171000082710000810B40C7814F0600F0FD104F01F04012C05D0022C06D044B9CA
:2014000010BCFFF797BF10BCFFF7B8BF10BCFFF7CDBF002010BC704708B540F29730FFF7DE
:2014200075FB0023054A064913600B6041F80C3C4FF41C430348136008BD00BF405C00405C
:20144000505C0040C00800200132521001EB4202914200D1704731F8023B40F8043BF7E7DD
:20146000034670B502F00104520801EB8205A94204D114B10B7800F8123070BD31F8046B33
:2014800023F8026BF3E7FEE77047000038B5184A184B19498B4217D30021184A934218D340
:2014A000174A184C1368184D43F400731360AC4212D3164C164DAC4212D3FFF7AFF8154C01
:2014C000154DAC4210D338BD52F8040B43F8040BE0E743F8041BE1E754F8043B9847E6E721
:2014E00054F8043B9847E6E754F8043B9847E8E7601C00080000002018000020C4090020B3
:2015000014ED00E0601C0008601C0008601C0008601C0008601C0008601C0008014B024A3A
:201520001A60FEE70CED00E00400FA05014B1888704700BFE0F7FF1F034A136823F0070334
:2015400003431360704700BF00200240024B41F080011960704700BF4C5C00403E2A13D9D0
:20156000013AC2F3441302F4787202F1200043F02003084A9B0212689BB292B202EBC10132
:20158000054A4900535070470132530822F0010290B2EEE7505C00400C6000402DE9F341BD
:2015A00006464FF0C060434C01F07F07CDE90040BC0004F1804404F5B844206802AD20F4CF
:2015C000E04020F07F00384380B22060206805EB420232F8082C20F4EC4020F07000104302
:2015E00049B280B200292060DDF8208032484FEAC70C2ADB4FB30268318B92B294442F4A58
:201600004FEA4C0C42F80C1030461A463946FFF7A5FFB8F1000F46D1236823F4415323F0DC
:2016200030031B041B0C2360236823F4804323F070039BB283F4405343F4004343F080033C
:201640002360338B184430832AE00568328BADB265446D0005F1804505F5C0452A60B8F1A4
:20166000000F04D00C2505FB0765C5F8688025681A4425F4E04525F030052D042D0C2560E3
:201680002568002925F4E04525F04005ADB285F0200545F4004545F0800525603283AADA0D
:2016A00002B0BDE8F0810C2101FB0767C7F86C80B2E700BF00020004505C0040086000402E
:2016C00048F2800170B50B4A0B4E0C4D0C4C136833400B439BB2136013682B400B439BB24E
:2016E00042F8043BA242F2D10368DB7920335B00038370BD045C0040BF8FFFFF8FBFFFFF72
:20170000205C004010B5002933D1002A14BF102420242B48036823F4E04323F04003634095
:201720001BB243F4004343F080039BB20360890001F1804101F5B8413AB90B6823F44153C0
:2017400023F030031B041B0C0B60002A14BF4FF480524FF440520B6823F4804323F07003D8
:2017600053401BB243F4004343F080039BB20B6024E00B06DBD5002A14BF1022202201F0FA
:201780007F034FEA830303F1804303F5B843196821F4E04121F0400182EA010212B242F4EC
:2017A000004242F0800292B21A6007D11A6822F4E04222F030021204120C1A6010BD00BF65
:2017C000005C00400B060ED501F07F01890001F1804101F5B841086800F03000102814BF42
:2017E000002001207047890001F1804101F5B841086800F44050B0F5805FF0E70B0612D480
:201800000B4B0C485A54890001F1804101F5B8410B6803409BB23AB183F4005343F4004313
:2018200043F080030B60704783F44053F6E700BFBC0900208FBFFFFF0846F8B51D4600F0AB
:201840007F039C0004F1804404F5B8441146226802F03002302A28D0154F2A463868DE0013
:2018600080B200EBC300400000F1804000F5C0400088400000F1804000F5C040FFF7E4FD5D
:201880003B689BB21E440B4B76009D51216821F4E04121F0400189B281F0300141F40041D8
:2018A00041F0800121602846F8BD0025FBE700BF505C004004600040F8B58D0005F1804587
:2018C00005F5B8451C462B680E4603F44053B3F5405F10463BD01F4F1F4A3B68C9009BB206
:2018E00003EBC6035B00D358C3F30903A34206DA3B689BB20B445B00D458C4F309043B68F7
:2019000022469BB21944154B4900595A490001F1804101F5C041FFF7A3FD2B6823F0F00337
:201920001B051B0D43F080032B600D4B9B5D63B9296821F4804121F0700189B281F4405188
:2019400041F4004141F0800129602046F8BD0024FBE700BF505C00400C60004008600040B6
:20196000BC090020374A2DE9F0411368044613F4806F16469FB208D0BDE8F0414FF6FF332D
:20198000136040230383FFF712B91D041FD503F00F084FEA880505F1804513F0100305F57A
:2019A000B84536D02B6819053CD50823414600F13002FFF781FF022308EB480213441A3311
:2019C00054F82330002B2FD04146204698473A0505D54FF2FF733360236A03B19847FB04F4
:2019E00005D54EF6FF733360636A03B1984717F4007F154D05D04FF6FF52A36A3260E3B1DA
:201A00009847A36ACBB12B6843F400732B60BDE8F0812A6822F0F0021205120D42F400423C
:201A20002A60C9E70123C7E72B6823F0F0031B051B0D43F080032B60C9E72B6823F40073AB
:201A4000E4E700BF445C0040405C0040844641EA000313F0030349D1403A23D30B680360DF
:201A60004B6843608B688360CB68C3600B6903614B6943618B698361CB69C3610B6A0362AA
:201A80004B6A43628B6A8362CB6AC3620B6B03634B6B43638B6B8363CB6BC3634030403167
:201AA000403ADBD230320BD30B6803604B6843608B688360CB68C36010301031103AF3D2D7
:201AC0000C3205D351F8043B40F8043B043AF9D2043208D0D2071CBF11F8013B00F8013BAD
:201AE00001D30B8803806046704700BF082A13D38B07B1D010F00303AED0C3F10403D21A8A
:201B0000DB071CBF11F8013B00F8013BA4D331F8023B20F8023B9FE7043AD9D3013A11F8A9
:201B2000013B00F8013BF9D20B7803704B7843708B7883706046704720F0030110F0030094
:201B4000C0F1000051F8043B00F1040C4FEACC0C6FF000021CBF22FA0CF213434FF0010C42
:201B60004CEA0C2C4CEA0C4CA3EB0C0222EA030212EACC1204BF51F8043B0430F4D0C2F1EC
:201B8000000102EA0102B2FA82F2C2F11F0200EBD2007047534547474552004A2D4C696E96
:201BA0006B003132333435360009020000010100C032FC1B00080705810240000000000098
:201BC0000000000000070501024000000000000000000000120100020000004066130101E6
:201BE0000002010203010904000002FFFF0006B61B000800000000000000000000000000F0
:201C00000100000000000000E61B0008112B39793405061B1C626230765F4C4158757F2094
:201C200019032B26363A3A6733357700191400084D1500089D150008C116000805170008EB
:201C4000FD170008C517000839180008B918000865190008000000000000000000000000CC
:201C6000941B00089B1B0008A21B000800127A0000127A0000127A00FFFFFFFFFFFFFFFF8E
:201C8000FFFFFFFFFFFFFFFFFFFFFFFFFFFFFFFFFFFFFFFFFFFFFFFFFFFFFFFFFFFFFFFF64
:201CA000FFFFFFFFFFFFFFFFFFFFFFFFFFFFFFFFFFFFFFFFFFFFFFFFFFFFFFFFFFFFFFFF44
:201CC000FFFFFFFFFFFFFFFFFFFFFFFFFFFFFFFFFFFFFFFFFFFFFFFFFFFFFFFFFFFFFFFF24
:201CE000FFFFFFFFFFFFFFFFFFFFFFFFFFFFFFFFFFFFFFFFFFFFFFFFFFFFFFFFFFFFFFFF04
:020000040800F2
:00000001FF
