:020000040800F2
:20000000601700209BE100080314000887140008871400088714000887140008000000001A
:2000200000000000000000000000000089140008891400080000000089140008891400082C
:20004000871400088714000887140008871400088714000887140008871400088714000888
:20006000871400088714000887140008871400088714000887140008871400088714000868
:20008000871400088714000887140008871400088714000887140008871400088714000848
:2000A000871400088714000887140008871400088714000887140008871400088714000828
:2000C000871400088714000887140008871400088714000887140008871400088714000808
:2000E0008714000887140008871400088714000887140008871400088714000887140008E8
:200100008714000887140008871400088714000887140008871400088714000887140008C7
:200120008714000887140008871400088714000887140008871400088714000887140008A7
:20014000871400088714000887140008871400084A2D4C696E6B204F422D53544D33324691
:2001600031303320563120636F6D70696C65642046656220203520323031342042544C202C
:200180002020202000436F7079726967687420323030332D32303133205345474745523A37
:2001A000207777772E7365676765722E636F6D0000000000000000000000000000000000A2
:2001C000F0B50346014441F20804104642F2100544F2200648F240078B4200D1F0BD13F8DB
:2001E000012B4240000A40EA022290B2D20548BF6040820548BF6840420548BF70400205FE
:2002000048BF7840C20448BF80F08100820448BF80F48170420448BF80F40170020448BF30
:2002200080F48160D8E7000013B504460D4B022200930121402300F0B3FC0B4B0222009358
:2002400081214023204600F0ABFC0022074BC3F82028C3F80C28C3F81828C3F8242802B082
:2002600010BD00BFA9030008710200081800002038B5114CD4F81838402B15D1D4F81428CC
:200280003F2A98BFD4F81438D4F81058D4F81428C4F81838D4F81418AA1AC91AC4F81418B7
:2002A0009BB2812100F09CFCD4F824380A2B84BF0A23C4F8243838BD180000204FF6FF7100
:2002C00080230846F0B5C1B0013B9BB2834233D199421ED100232E4A2E4932F8020B8A42E6
:2002E00080EA4303F9D100242B4A9BB21A44009220232246294E2A4FB05C38BB00F0B0FA7A
:2003000080244FF6FF75013CA4B2AC4232D100F0B3FA4FF6FF72234C23889BB2934235D167
:2003200000F09EFA4FF48071204600F031FA41B0BDE8F04000F0A0BA5A0002F1006202F5CA
:20034000FE3212882DF813001140BDE7B91891F83550991885EA000C0DF801C0854202F11B
:20036000010189B204D123440C460F339B1A9BB20A46C1E73DF81410A942C4D0600000F14D
:20038000006000F5FE3000F003FABCE741B0F0BDE8F7FF1FF4F7FF1FA488D2230C1C000855
:2003A0005001000800F8010800232DE9F043914D85B0D5F80C6807462C46CDE90233002E4B
:2003C00000F09F80D5F808684023C6F30A062E443246012100F00BFC0546002800F0B78008
:2003E000D4F80C38D4F80888984228BF1D465B1B08EB0502C4F80828C4F80C38D4F82038ED
:20040000002B3BD0B4F81C282946304692B2FFF7D7FE33464FF0040CA4F81C0825F0030121
:200420007548DFF8ECE1DFF8EC9131448B422FD1D4F80C38002B47D1B4F81E28A5F10209DF
:2004400092B249463046FFF7BBFEA4F81E08B4F81E28B4F81C3853409BB226F80930002297
:200460004FF6FF7908F1006825F0010508F58048023D002D32DA0AB100F0FEF9D4F80C3854
:20048000002B64D1FA22C4F824280393012352E01A68824208BFA4F804C8B4F8042892B25B
:2004A00082B1B4F80428013A92B2A4F804281A68724507D1B4F80628013292B2A4F80628BE
:2004C000C3F800900433B1E7B4F81E282946304692B2FFF775FEA4F81E08C0E7735B9BB2FA
:2004E0004B45ADF806300AD00AB900F0B9F9BDF8061008EB050089B200F04AF90122023DBF
:20050000B7E70423012102AA00F071FBF8B1029B43EA0070394B98425DD012D8384B984237
:2005200018D0053398424DD00023C4F82038C4F80C38012303938121384603AA00F050FBAB
:2005400005E0304B9842EFD10123C5F8203805B0BDE8F0834023C5F82068C5F80C68C5F805
:2005600018387023C5F81438D5F81428264B1344C5F81038D5F8143803930223DBE735F8F6
:200580001610334689B201EA020632465E1EB6B24645F4D1424506D000F062F9284600F0DC
:2005A00025F900F069F905F580654D4507D10023A4F80438A4F80638C4F8203865E74FF40A
:2005C0000073E2E74FF6FF724FF4007390460F4DDFF84490DAE7D5F82038002BB7D04FF4BB
:2005E000DC33C5F80C38C5F80868A5F81C68A5F81E68ACE71800002000F8FF1F0600002073
:200600000100001000F800205001000800400008082002400420024000F80108F0B5002476
:2006200087B040F20230059400F070FA4FF4007322462146404800F02DF94FF480713E484F
:2006400000F059F93D4D012202214FF480733A4800F020F940F2023000F066FA22464FF468
:20066000DC312846FFF7ACFD48B94FF48042344B1A602B6883F30888324B1B68984700F0F9
:20068000FFF940F2023000F041FA4FF4237000F03DFA4FF4407000F039FA2B4A2B4913685C
:2006A0002B4843F00073136080230293294B2A4A019303230093294B00F046FA28490446E2
:2006C00000F022FE4FF400711B4800F012F94FF4007300220221184800F0DCF8214D224EFB
:2006E000154F059B5A1E05920BBBD5F824387BB1D5F82428013AC5F824284AB94FF40073B6
:2007000011460D4800F0C6F8FFF7D8FD00F006FF42F2107233684FF4807113F4807F44F6FA
:20072000206308BF13463846059300F0E7F8204600F032FAD5E700BF0008014000400008A3
:2007400008ED00E00440000804000140D41B00082C1C000840080020A91B00080000002098
:2007600029020008180000200C080140064B10B51C6800F0DBFEB0F5007F82BF034B186823
:20078000044304F0350010BD0C2002404C20024038B504460D4600F077F800F0C7FEB0F5BD
:2007A000007F18D90E4B9C4215D90E4A136843F001031360258000F067F800F0B7FEB0F5E9
:2007C000007F0AD9064B9C4207D9064A136823F00103136038BD044AE8E7034AF6E700BF58
:2007E000FFFF0708502002401020024010B5044600F04AF800F09AFEB0F5007F1DD9134B87
:200800009C421AD9124B1A6842F002021A60114A14601A6842F040021A6000F035F800F02C
:2008200085FEB0F5007F0FD9084B9C420CD9084A136823F00203136010BD074B1A6842F0E8
:2008400002021A60054AE3E7034AF1E7FFFF0708502002405420024010200240142002407F
:20086000034B044A1A6002F188321A60704700BF0420024023016745024A136843F0800312
:20088000136070471020024008B5FFF76FFFC307FBD408BD2DE9F0414FF00F0C0025076808
:2008A000466843FA05F4E4071CD5072D94BFBE46B646ACB24FEA84048ABF203CA4B2A4B281
:2008C0000CFA04F82EEA080804F1020E02FA0EFE01FA04F44EEA040444EA0804072D94BFED
:2008E000274626460135102DDBD107604660BDE8F08101617047090401617047C36801EA88
:20090000030221EA030141EA0241016170470000024A136843F080731360704700100240D3
:20092000062822D8DFE800F004090E13181D1F000F4B1868C0F3406070470D4B1868C0F3E7
:20094000C06070470A4B1868C0F340707047084B1868C0F340407047054B1868C0F3400051
:200960007047044BF9E7044BF7E70020704700BF001002402010024024100240024608B58F
:200980001046FFF7CDFF0028FAD008BD06280CD8DFE800F004060C11161B1D00FFF7B8BFDD
:2009A0000C4A136843F0806313607047094A136843F08053F8E7074A136843F48033F3E7E3
:2009C000044A136843F00103EEE7034AF9E7034AF7E700BF001002402010024024100240F1
:2009E000034A136823F0030303431360704700BF04100240034A136823F4701343EA80433F
:200A00001360704704100240034A136823F4803343EA00431360704704100240034A13680C
:200A200023F4003343EA40431360704704100240034A136823F4404343EA803313607047D0
:200A400004100240034A136823F4605343EAC0231360704704100240034A136823F4E063FC
:200A600043EA00231360704704100240034A136823F0F00343EA0013136070470410024018
:200A800008B50420FFF782FF0420FFF777FF0020FFF7A6FF0320FFF779FF0320FFF76EFF9C
:200AA0000120FFF79DFF0020FFF7E0FF0320FFF7BFFF0420FFF7D0FF0020FFF7C3FF0220D4
:200AC00000F03AFD0720FFF795FF0120FFF79CFF0020FFF7A3FFFFF71BFF0020FFF74EFF61
:200AE0000220FFF77DFF044B044A05491360054A1160054A136008BD00A24A040C000020A1
:200B00000051250210000020140000200122430903F1804303F50433196800F01F0002FA18
:200B200000F00843186070470121430903F1804303F504331A6800F01F0001FA00F022EA6F
:200B400000001860704700002DE9F0411E4603680546884617469847069BC0E90087C36007
:200B6000079BC0F8DC500361BDF8203086608382064B0367064BC366064B83660023C0E960
:200B80003233C0E93433BDE8F08100BF7D0D0008DD0D00085F0E0008D0F8DC305B6A18471A
:200BA00010B4D0F8DC40A468A44610BC604737B5002504460368C582DB792A46294600954F
:200BC000FFF7EEFFD4F8DC3029465B6820469847E3691BB103B0BDE83040184703B030BD04
:200BE00010B4D0F8DC40E469A44610BC604710B4D0F8DC40246AA44610BC6047D0F8DC303C
:200C00001B691847D0F8DC309B691847D0F8DC305B69184710B503680446D979838F826BF8
:200C200099420FD20B460021FFF7DAFF022384F82C302368A26BD979A38F0A445B1AA263D6
:200C4000A38710BD0021FFF7CBFF94F84430002B14BF0223032384F82C30002384F8443088
:200C6000A387A363EDE72DE9F74F04460E46054600F1200A00F1380800F13C0B00F140096D
:200C8000AF6C47B95B4642463146204603B0BDE8F04F00F0A9BB317895F84D2095F84C309C
:200CA00011408B4203D008355545E9D1EAE75B46424631462046CDF80090B8470128F2D894
:200CC00003B0BDE8F08F10B5012200210446FFF795FF002384F82C3010BD70B50368828FF7
:200CE000C48EDB79A41A9C42A8BF1C46816BA6B20A44334600210546FFF779FF864205D067
:200D00002846FFF7E0FF4FF0FF3070BDAB8FA0B21E44AE87F9E738B50369044683638B7965
:200D2000CA790D4643EA02238387FFF79CFF00B3EB88ABB1A28F21689342C9790ED932B113
:200D4000B2FBF1F301FB1322B2FA82F25209204684F84420BDE83840FFF75CBF0022F6E7E3
:200D60001A4619462046FFF73BFF042384F82C3038BD2046BDE83840FFF7A5BF70B5002503
:200D8000044601222946056400F13006FFF73EFFE28E2AB931462046BDE87040FFF7BBBFBF
:200DA00094F93030002BF5DBA38A934204D22046BDE87040FFF787BF2369A587A363236833
:200DC0002946DB792046934234BF052306232A4684F82C30BDE87040FFF718BF10B590F81A
:200DE0002C300446062B12D0072B27D0052B21D1FFF773FF002809DBA28FE38E9B1A22689A
:200E0000D279934202DC062384F82C3010BDFFF764FF0028FADB204604F13001FFF723FF0C
:200E200038B1002320461A461946FFF7D9FE0423EAE72046BDE81040FFF745BF00231A46E4
:200E40001946FFF7D4FE002384F82C30236C1BB1204604F13001984700232364D6E710B57E
:200E600090F82C300446032B07D0042B0ED0022B23D1BDE81040FFF7CDBE0723002280F8D7
:200E80002C301146BDE81040FFF7C0BE036C13B100F13001984794F8303053B994F831301D
:200EA000052B06D1618ED4F8DC3020465B68C9B29847002384F82C3010BDBDE81040FFF72E
:200EC00002BF10B50B7873B94C887F2C0CD8D0F8DC30847593F830201AB149885B68C9B2F8
:200EE0009847012300E00023184610BDF8B50D464988044679B103680D26587C002398420D
:200F000001D80020F8BD626806FB032252798A4203D00133F3E74FF0FF330133DBB2E37531
:200F20004BB9D4F8DC302046DB689847D4F8C8309BB90120E6E70D22534362680D3B134419
:200F40000022104619799142EBD9D3F809101601715801B108700132F4E7002304F1C8060E
:200F6000A3642365A365236604F1D80756F8043B13B1204669889847B742F7D1D9E71988D4
:200F80001268012984BF01211980C37D2BB141680D2000FB031313F8083C01201370704702
:200FA00030B50D24C57D40686C430D3C04448D88207985420CD2012018808B88D4F80900FD
:200FC0001B011B5803B11B7801201268137030BD0020FCE719880120022984BF0221198041
:200FE000002311680B7012685370704710B514461A88022A84BF02221A808988C9B2FFF776
:2010000001FE003818BF0120002223681870236801205A7010BD08B589880122C9B2FFF7C7
:20102000EDFD012008BD08B589880022C9B2FFF7E5FD012008BD0D2270B51C46C37D5A4324
:2010400043680D3A13441D798A88954219D9D3F80950160105EB02124B8812799A4210D974
:20106000AA5952B11370D0F8D83013B14A888988984700230120238070BD002BF3D0104639
:20108000FAE70020F8E72DE9F04F1F464B880646180A0228144689B010D0032800F0ED8050
:2010A000012840F02381336813601B783A88934228BF13463B8009B0BDE8F08F4FF00D08CF
:2010C000DBB208FB03F83269D6F80490226019F808503C8809EB0803A54228BF254602920D
:2010E00019462A460298039300F0B0FC029B641B5E19002319F80880A4B20193039B1A79EB
:20110000BDF804309A4205D8029BA3F802803D800120D0E7019B019A1B010593039BD3F88A
:20112000093003EB0213D3F808A0BAF1000F14D09AF800903046A14528BFA14651464A46EF
:2011400000F084FC9AF80030A4EB09044D4498444E44A4B2ADB21FFA88F800230493039B1C
:20116000059AD3F8093013441979BDF81020914202D8019B0133C0E71521049AD3F80CA08F
:2011800001FB02F91AF809B00AEB0903A34528BFA346194630465A46009300F057FC1AF877
:2011A0000930A4EB0B049844009B5D44D3F80D105E44A4B2ADB21FFA88F8B1B1D3F811A08A
:2011C0003046A245A8BFA2461FFA8AF94A4600F03DFC009BA4EB0904D3F811304D4498445E
:2011E0004E44A4B2ADB21FFA88F84FF00009009B1A791FFA89F39A4202D8049B0133ADE7E7
:20120000009BC9EB091BD3F80930304613F80B2003EB0B0AA24228BF2246514607930692AC
:2012200000F014FC079B069A13F80B30DAF80710A41A154498441644A4B2ADB21FFA88F8A2
:20124000C1B1DAF80B203046A242A8BF22461FFA82FB5A46CDF818B000F0F8FBDAF80B3043
:20126000069AA4EB0B045D4498441644A4B2ADB21FFA88F809F10109B9E713F0FF033569C4
:201280000DD10923AB700423EB702B703B88042B28BF04233B8003236B70256038E7B06894
:2012A000013B00283FF407AFF2689A421EDD40F209428988914219D150F82360304600F034
:2012C0003BFC01304000C0B228703B88984228BF1846002338803A885208013A9A42DADDB5
:2012E000F15C05EB430251800133F4E70020E2E619880120022984BF02211980002311681C
:201300000B701268537070470246002310B500F1C80454F8040B38B1884209D00133042B27
:20132000F7D14FF0FF3010BD323342F82310FAE70020F8E710B44C78092C12D8DFE804F096
:201340000D111111110F0B110905074CA44610BC6047064CFAE7064CF8E7064CF6E7064C6E
:20136000F4E7002010BC7047ED0E00087F0F000887100008D50F0008C30E000810B44C786A
:201380000A2C06D00B2C06D03CB9054CA44610BC6047044CFAE7044CF8E7002010BC70478E
:2013A000F1120008A10F00083710000810B44C78012C04D0032C07D01CB9084C08E04C88A7
:2013C0004CB1002010BC70474C88002CF9D1044CA44610BC6047034CFAE700BFED0F000803
:2013E000171000082710000810B40C7814F0600F0FD104F01F04012C05D0022C06D044B9CA
:2014000010BCFFF797BF10BCFFF7B8BF10BCFFF7CDBF002010BC704708B540F29730FFF7DE
:2014200075FB0023054A064913600B6041F80C3C4FF41C430348136008BD00BF405C00405C
:20144000505C0040C00800200132521001EB4202914200D1704731F8023B40F8043BF7E7DD
:20146000034670B502F00104520801EB8205A94204D114B10B7800F8123070BD31F8046B33
:2014800023F8026BF3E7FEE77047000038B5184A184B19498B4217D30021184A934218D340
:2014A000174A184C1368184D43F400731360AC4212D3164C164DAC4212D3FFF7AFF8154C01
:2014C000154DAC4210D338BD52F8040B43F8040BE0E743F8041BE1E754F8043B9847E6E721
:2014E00054F8043B9847E6E754F8043B9847E8E7601C00080000002018000020C4090020B3
:2015000014ED00E0601C0008601C0008601C0008601C0008601C0008601C0008014B024A3A
:201520001A60FEE70CED00E00400FA05014B1888704700BFE0F7FF1F034A136823F0070334
:2015400003431360704700BF00200240024B41F080011960704700BF4C5C00403E2A13D9D0
:20156000013AC2F3441302F4787202F1200043F02003084A9B0212689BB292B202EBC10132
:20158000054A4900535070470132530822F0010290B2EEE7505C00400C6000402DE9F341BD
:2015A00006464FF0C060434C01F07F07CDE90040BC0004F1804404F5B844206802AD20F4CF
:2015C000E04020F07F00384380B22060206805EB420232F8082C20F4EC4020F07000104302
:2015E00049B280B200292060DDF8208032484FEAC70C2ADB4FB30268318B92B294442F4A58
:201600004FEA4C0C42F80C1030461A463946FFF7A5FFB8F1000F46D1236823F4415323F0DC
:2016200030031B041B0C2360236823F4804323F070039BB283F4405343F4004343F080033C
:201640002360338B184430832AE00568328BADB265446D0005F1804505F5C0452A60B8F1A4
:20166000000F04D00C2505FB0765C5F8688025681A4425F4E04525F030052D042D0C2560E3
:201680002568002925F4E04525F04005ADB285F0200545F4004545F0800525603283AADA0D
:2016A00002B0BDE8F0810C2101FB0767C7F86C80B2E700BF00020004505C0040086000402E
:2016C00048F2800170B50B4A0B4E0C4D0C4C136833400B439BB2136013682B400B439BB24E
:2016E00042F8043BA242F2D10368DB7920335B00038370BD045C0040BF8FFFFF8FBFFFFF72
:20170000205C004010B5002933D1002A14BF102420242B48036823F4E04323F04003634095
:201720001BB243F4004343F080039BB20360890001F1804101F5B8413AB90B6823F44153C0
:2017400023F030031B041B0C0B60002A14BF4FF480524FF440520B6823F4804323F07003D8
:2017600053401BB243F4004343F080039BB20B6024E00B06DBD5002A14BF1022202201F0FA
:201780007F034FEA830303F1804303F5B843196821F4E04121F0400182EA010212B242F4EC
:2017A000004242F0800292B21A6007D11A6822F4E04222F030021204120C1A6010BD00BF65
:2017C000005C00400B060ED501F07F01890001F1804101F5B841086800F03000102814BF42
:2017E000002001207047890001F1804101F5B841086800F44050B0F5805FF0E70B0612D480
:201800000B4B0C485A54890001F1804101F5B8410B6803409BB23AB183F4005343F4004313
:2018200043F080030B60704783F44053F6E700BFBC0900208FBFFFFF0846F8B51D4600F0AB
:201840007F039C0004F1804404F5B8441146226802F03002302A28D0154F2A463868DE0013
:2018600080B200EBC300400000F1804000F5C0400088400000F1804000F5C040FFF7E4FD5D
:201880003B689BB21E440B4B76009D51216821F4E04121F0400189B281F0300141F40041D8
:2018A00041F0800121602846F8BD0025FBE700BF505C004004600040F8B58D0005F1804587
:2018C00005F5B8451C462B680E4603F44053B3F5405F10463BD01F4F1F4A3B68C9009BB206
:2018E00003EBC6035B00D358C3F30903A34206DA3B689BB20B445B00D458C4F309043B68F7
:2019000022469BB21944154B4900595A490001F1804101F5C041FFF7A3FD2B6823F0F00337
:201920001B051B0D43F080032B600D4B9B5D63B9296821F4804121F0700189B281F4405188
:2019400041F4004141F0800129602046F8BD0024FBE700BF505C00400C60004008600040B6
:20196000BC090020374A2DE9F0411368044613F4806F16469FB208D0BDE8F0414FF6FF332D
:20198000136040230383FFF712B91D041FD503F00F084FEA880505F1804513F0100305F57A
:2019A000B84536D02B6819053CD50823414600F13002FFF781FF022308EB480213441A3311
:2019C00054F82330002B2FD04146204698473A0505D54FF2FF733360236A03B19847FB04F4
:2019E00005D54EF6FF733360636A03B1984717F4007F154D05D04FF6FF52A36A3260E3B1DA
:201A00009847A36ACBB12B6843F400732B60BDE8F0812A6822F0F0021205120D42F400423C
:201A20002A60C9E70123C7E72B6823F0F0031B051B0D43F080032B60C9E72B6823F40073AB
:201A4000E4E700BF445C0040405C0040844641EA000313F0030349D1403A23D30B680360DF
:201A60004B6843608B688360CB68C3600B6903614B6943618B698361CB69C3610B6A0362AA
:201A80004B6A43628B6A8362CB6AC3620B6B03634B6B43638B6B8363CB6BC3634030403167
:201AA000403ADBD230320BD30B6803604B6843608B688360CB68C36010301031103AF3D2D7
:201AC0000C3205D351F8043B40F8043B043AF9D2043208D0D2071CBF11F8013B00F8013BAD
:201AE00001D30B8803806046704700BF082A13D38B07B1D010F00303AED0C3F10403D21A8A
:201B0000DB071CBF11F8013B00F8013BA4D331F8023B20F8023B9FE7043AD9D3013A11F8A9
:201B2000013B00F8013BF9D20B7803704B7843708B7883706046704720F0030110F0030094
:201B4000C0F1000051F8043B00F1040C4FEACC0C6FF000021CBF22FA0CF213434FF0010C42
:201B60004CEA0C2C4CEA0C4CA3EB0C0222EA030212EACC1204BF51F8043B0430F4D0C2F1EC
:201B8000000102EA0102B2FA82F2C2F11F0200EBD2007047534547474552004A2D4C696E96
:201BA0006B003132333435360009020000010100C032FC1B00080705810240000000000098
:201BC0000000000000070501024000000000000000000000120100020000004066130101E6
:201BE0000002010203010904000002FFFF0006B61B000800000000000000000000000000F0
:201C00000100000000000000E61B0008112B39793405061B1C626230765F4C4158757F2094
:201C200019032B26363A3A6733357700191400084D1500089D150008C116000805170008EB
:201C4000FD170008C517000839180008B918000865190008000000000000000000000000CC
:201C6000941B00089B1B0008A21B000800127A0000127A0000127A00FFFFFFFFFFFFFFFF8E
:201C8000FFFFFFFFFFFFFFFFFFFFFFFFFFFFFFFFFFFFFFFFFFFFFFFFFFFFFFFFFFFFFFFF64
:201CA000FFFFFFFFFFFFFFFFFFFFFFFFFFFFFFFFFFFFFFFFFFFFFFFFFFFFFFFFFFFFFFFF44
:201CC000FFFFFFFFFFFFFFFFFFFFFFFFFFFFFFFFFFFFFFFFFFFFFFFFFFFFFFFFFFFFFFFF24
:201CE000FFFFFFFFFFFFFFFFFFFFFFFFFFFFFFFFFFFFFFFFFFFFFFFFFFFFFFFFFFFFFFFF04
:020000040800F2
:020000040800F2
:20400000601700209BE1000803C500082D73000805C5000807C5000809C500080000000091
:204020000000000000000000000000000BC500080DC5000800000000557300082F82000845
:204040000FC5000811C5000813C5000815C5000817C5000819C500081BC500081DC5000848
:204060001FC5000821C5000823C5000825C5000827C5000829C500082BC500082DC50008A8
:204080002FC5000831C5000833C5000835C50008C7C5000837C5000839C500083BC500087E
:2040A0003DC500083FC5000841C5000843C5000845C5000847C5000849C500084BC5000878
:2040C0004DC500084FC5000851C5000853C5000855C50008737E000857C5000859C5000807
:2040E0005BC500085DC500085FC50008FFFFFFFFFFFFFFFFFFFFFFFFFFFFFFFFFFFFFFFF56
:20410000FFFFFFFFFFFFFFFFFFFFFFFFFFFFFFFFFFFFFFFFFFFFFFFFFFFFFFFFFFFFFFFFBF
:20412000FFFFFFFFFFFFFFFFFFFFFFFFFFFFFFFFFFFFFFFFFFFFFFFFFFFFFFFFFFFFFFFF9F
:20414000FFFFFFFFFFFFFFFFFFFFFFFFFFFFFFFFFFFFFFFFFFFFFFFFFFFFFFFFFFFFFFFF7F
:20416000FFFFFFFFFFFFFFFFFFFFFFFFFFFFFFFFFFFFFFFFFFFFFFFFFFFFFFFFFFFFFFFF5F
:20418000FFFFFFFFFFFFFFFFFFFFFFFFFFFFFFFFFFFFFFFFFFFFFFFFFFFFFFFFFFFFFFFF3F
:2041A000FFFFFFFFFFFFFFFFFFFFFFFFFFFFFFFFFFFFFFFFFFFFFFFFFFFFFFFFFFFFFFFF1F
:2041C000FFFFFFFFFFFFFFFFFFFFFFFFFFFFFFFFFFFFFFFFFFFFFFFFFFFFFFFFFFFFFFFFFF
:2041E000FFFFFFFFFFFFFFFFFFFFFFFFFFFFFFFFFFFFFFFFFFFFFFFFFFFFFFFFFFFFFFFFDF
:20420000000000000000000000000000000000004A2D4C696E6B204F422D53544D3332461C
:2042200031303320563120636F6D70696C65642041756720323720323033302031373A3435
:20424000373A333800436F7079726967687420323030332D32303139205345474745523AD4
:20426000207777772E7365676765722E636F6D0000000000000000000000000000000000A1
:204280002DE9F0470C46804640F61009C4F201094FF4807A41F27E15C2F2000501260027A0
:2042A0004046214600F014F8404621464FF4807208F056F950B12E704FF40070C9F804A0F5
:2042C0000138FBD1C9F800A02F70E9E7BDE8F087DFF800F05103002030BFFDE782B041F27A
:2042E0000000C4F202000022CFF6FF02016841F00101016041681140416001684FF6FF7267
:20430000CFF6F66211400160016821F480210160416821F4FE0141604FF41F01816000218B
:2043200001910091016841F480310160016801F400310091019901310191009919B9019927
:20434000B1F5A06FF2D10168890354BF0021012100910099012934D142F20001C4F2020153
:204360000A6842F010020A600A6822F003020A600A6842F002020A60416841604168416084
:20438000416841F480614160416821F47C114160416841F4E8114160016841F0807101606D
:2043A00001688901FCD5416821F003014160416841F00201416000BF416801F00C010829C5
:2043C000FAD14EF60850CEF200004FF00061016002B070472DE9F84F1E4690460A0041F278
:2043E0008111C2F2000181460F7807D0009638464946434600F0DEF9BDE8F88FC7EBC700B9
:2044000040F62C61C2F2000101EBC00B0BF1140A0BF11905287818B14FF0FF3409E000BFB6
:20442000584608F018FBBAF80040002C18BF012413D1002E0ADB3846314608F06AFA01462A
:2044400000200CB10029E5D0BDE8F88F002C18BF6FF003042046BDE8F88F009638464946D7
:204460000022C6E710B5C0EBC00040F62C63C2F2000303EBC00040F6FC7CC2F2000CC0796C
:2044800000F07F00C300043341F23C0EC2F2000E5CF803C05EF803E01346022A07D300BF06
:2044A00031F8024B4EF8044B023B012BF8D813B10978CEF800106FF39F22CCF80020302145
:2044C000BDE8104000F000B818B5032245F6004CC4F2000C48F2800347F2400E5CF820400C
:2044E00004F030048C4208BF18BD5CF820404C400094009C1C430094009C24EA0E04009477
:20450000009C4CF82040013AE8D118BD18B5032245F6004CC4F2000C48F2800344F2700EE6
:204520005CF8204004F440548C4208BF18BD5CF820404C400094009C1C430094009C24EAC4
:204540000E040094009C4CF82040013AE8D118BD2DE9F04F87B0934680464FF0800080F34F
:20456000118800BF00BF40F2A054C2F2000440F62C62C2F20002607801306070C8EBC80078
:2045800002EBC005287A012802D16FF0020912E040F62C4AC2F2000A9AF80A0000F0030076
:2045A000022806D12A4652F8100F88B16FF0030901E04FF0FF39607801386070607818B99B
:2045C0004FF0000080F31188484607B0BDE8F08F109E687E00F0010CF00711D081B9BBF1D8
:2045E000000F0DD1686A0028E0D1019306F002014FF0000941F27D10C2F2000000905BE00F
:204600000592BBF1000F08BF4FF0010CCDF808C005F12407CDE9038BCDE9001331D005F183
:204620001C00069005F1200A05F1280838680E464FF0000948B30699D8F800200968DAF879
:20464000003011441044984288BF1846841A5C4528BF5C463046224602F02AFF3868001B86
:204660003860D8F80010DAF8002021448A1A18BF0A46C8F800202644A144BBEB040BD9D112
:2046800002E038684FF0000908B90020A862DDE904B2109EDDE902C8D94540F62C4AC2F22D
:2046A000000A40F2A054C2F200040CD016F0020118BFB9F1000F06D191B12888584538BF40
:2046C000834601200DE0BCF1000F3FF474AF296A081A29888842FFF46EAF002014270DE069
:2046E0000020710705D43746ABEB09030099494406E0BCF1000F3FF45EAF37460021002361
:20470000161F059211600022F273B073BAF870000130AAF8700025F80A0F284640F80A3F28
:204720000690284610F80E6F4EB901260670B806DAF8840058BF1A46C36A40469847F80631
:204740003FF539AF607801386070607818B94FF0000080F311882A88019951B1404603F0A1
:2047600017FF70B1B80609D44046002108F077F807E04046114603F045FE02E005990020BF
:20478000086006984FF0FF3900689AF80A1001F00301022908BFABEB000915E738B540B128
:2047A0000C460546D5E90121204690472D68002DF8D138BD2DE9F0411D4616460C468046A1
:2047C000069F002F11D400BF4046214632462B4604F035FC011D10D14046394608F0F5F87D
:2047E0000028F1D00020BDE8F0814046214632462B46BDE8F04104F022BC002848BFBDE848
:20480000F0814046394608F0BAF8301A38BF0020BDE8F0812DE9F84F8346C0EBC00040F63A
:204820002C61C2F2000101EBC006B14619F8190F38B106F10C0ABBF1000F04D0DAF80010ED
:2048400009B1BDE8F88F34460021022854F8200F04F8091CA4F1040503D310B9304603F06B
:2048600025FD40F62C40C2F20000D0F88400D0F85080B8F1000F23D0B08A009099F80010C6
:204880006B4658462A46C04707000098B08234D4781CCAF80000D4F800B0B8465F4508D924
:2048A000304603F003FDA8EB0B08D4F800B0D845F6D8ABEB0800206028684044286027E0C1
:2048C00021683788B94238BF0F46791CCAF800102968436B58463A4698472068C01B2060C3
:2048E0002868384428602FB130884FF6FF710144394207D00020B0820AE00120CAF8000021
:20490000BDE8F88FB7FBF0F0B18A0844B0820127304608F0A0F82068002892D199F800004E
:20492000022804D3304603F0C1FCBDE8F88F47B1B08A30B116F8160F18B100203070BDE8B0
:20494000F88F002089F80000BDE8F88F0022C0E9011240F62C42C2F20002D2F8E01039B127
:204960000B4600BF834208BF70471B68002BF9D1C2F8E000016070472DE9F34100EB400045
:2049800040F69C71C2F2000101EBC00401A9204604F036F868B304F1080640F2A057C2F242
:2049A00000070DF1040800253878013038704FF0800080F3118800BF00BF787801307870E6
:2049C000306828B13560206810B1204603F0D4FF787801387870787818B94FF0000080F3D8
:2049E000118804F0D8FE2046414604F009F80028DAD102B0BDE8F08141061AD040F62C4103
:204A0000C2F200010A788AB1012A98BF012240F62C61C2F20001CB1D002100BF93F800C0F4
:204A2000844507D0383301318A42F7D14FF0FF3100E00021084670472DE9F84F0C46054636
:204A400008880021B1EB500F0BD04208002000BF02F0010318445308B1EB520F1A46F7D1D4
:204A60000146D5E90002904206D2AA6809231354D5E9000201302860904206D2AA68042384
:204A80001354D5E9000201302860904206D2AA6800231354D5E9000201302860904206D2CD
:204AA000AA68A3781354D5E9000201302860904205D2AA681154D5E900020130286090427E
:204AC00006D2A968E2780A54D5E9000201302860904206D2A96822790A54D5E90002013017
:204AE0002860904206D2A96862790A54D5E9000201302860904205D2A968E2790A542868BE
:204B000001302860A26812B100202946904740F62C4AC2F2000ADAF8840080698047DAF867
:204B2000841007468869804741074FF002010091884658BF00F001089AF80000022838BF30
:204B4000BDE8F88F3807084658BFC7F34000009040F62C60C2F2000000F138074FF0010B0A
:204B6000208820FA0BF0C00700F08380D5E90060864206D2A86807218155D5E900104E1CBA
:204B80002E60864206D2A86805218155D5E900104E1C2E60864206D2A868F9798155D5E95F
:204BA00000104E1C2E60864209D2B879797A01F00C010843A96888552868461C2E6078886F
:204BC0000099414503D9B979424604F03CF93880B0F5806F28BF4FF4806069688E4205D229
:204BE000A9688855D5E90021561C2E608E4205D2A968000A8855286801302860DAF88400AA
:204C0000B7F804908069804709F1070210F0050108BF4FEAD209B9F1000F08BF4FF00409F1
:204C2000BA79032A06D0012A05D0012121EA900909E000BF31B30020C9F34E090130B9F1DE
:204C4000000FF9D18146D5E90001884205D2A96801F80090286801302860DAF8F82012B1C4
:204C6000384629469047E3681BB1F97900202A4698470BF1010B38379AF800008345FFF4B4
:204C80006FAF05E0B9F1FF0F28BF4FF0FF09DAE7BDE8F88F38B540F2A055C2F20005024629
:204CA000287801302870506931B151620B6813600A6013B35C6918E0294651F80C3F53B163
:204CC0005C69A0420CD200BF19461B681BB15C69A042F9D306E05162002010600A600CE0F0
:204CE00005F10C01516213600A605A62844214BF002092F83D0082F83C00107C70B94FF03B
:204D0000800080F3118800BF00BF104603F0D4FD687818B94FF0000080F31188BDE8384056
:204D200004F039BD00B50346808AD3F804C0D3F810E00EFB00CE00BF1EF8012B01F8012B3A
:204D40000138F9D19868D3E9031201328A4228BF002288429868A0F10100986040F2A05001
:204D6000C2F200001A61407809D118B94FF0000080F311881846BDE8004003F0FDBD00B1B5
:204D800000BD4FF0000080F3118800BD38B540F2A055C2F200050446287801302870207A34
:204DA00080B1A8686168814209D000BF2046102107F011FF207A0028F8D1A8686060207AFB
:204DC000013002E0A868606001202072BDE8384004F0E1BC40F2A052C2F20002116A0144F5
:204DE000106A081A0128B8BF704741F2A920C2F20000007860B14FF0800080F3118800BFFD
:204E000000BF906804220274C16004F0C8BA00BF106A401AFCD4704740F2A052C2F20002B4
:204E20000146107801301070002050704FF0000080F3118841F2A820C2F20000017000BFE8
:204E400001780029FCD170472DE9F04F8BB0582A02D24FF0FF35FFE014460F460546D0E941
:204E6000059608460021582209F09FF907F1200005F108010190042202F01AFBD5F800B0CB
:204E800095F80C80FF20C0F60160834504BF40F2FF0BC0F6006B40F2FF00C0F6006040F262
:204EA000FF3A834508BF40F6FF7A00F17540834508BF40F6FF7A687B01060CD501217977BA
:204EC0004FF4600101EA005100F0200041EAC03080F48010F860A87B02944FF0FF31814082
:204EE00001381F2838BF6FEA010A042E0BD3484609F051F909F10401C7E9011001EBC00981
:204F0000A6EBC000061F4FEA0864002556B1484609F041F940F6FF7210F0010118BF20EAFF
:204F2000020400E00021DDF804803977C7E904A44FF4516000290CBF10204FF45061788302
:204F400039830A9507F158000890CDE90380069502995839099121EAE17100EB5100059046
:204F60004808C00007900DF10C0A50460A2107F0A8FE5046022107F0AEFE388650460B213C
:204F800007F09FFE5046002107F0A5FEB8855046012107F0A0FEF88507F13401504608F06A
:204FA0004CFF00BF5046032107F095FE25B1012D08BF841B01E000BF06460135102DF1D118
:204FC00007F140050DF10C094846294608F035FF7C853E85B86C07F14C062946324691E8C6
:204FE000180482E8180407300999B1EBD004099415D44FEAD00A2968089D2846524602F0FF
:2050000057FA356005EB0A0008906108C900079100EB5401CDE904010021069100E008981B
:2050200078620A98B4EB400516D40298411B384608F03FFF002448460021142209F0B5F8CD
:20504000CDE904B409F10C004146042202F030FA484605F007FA386028460BB0BDE8F08FAA
:2050600040F61001C4F2010141F27E12C2F200024FF480734FF0800080F3118800BF00BF39
:20508000107890F0010010700CBF0B604B60F1E700B5A1B06846042106F0C8FA4FF0000EF0
:2050A0000099B1B10DF1040C00220023C80707D00020032B88BF4FF0FF304CF82200013260
:2050C0000133BEEB510F4FEA5101EFD10020009096464FEA8E0101A807F01CF821B000BDB2
:2050E0002DE9F04F87B00DF11A00022106F09EFA05A8022106F09AFA04A8022106F096FAAC
:2051000003A8022106F092FA02A8022106F08EFABDF81A0000EB400009304EF2DA21C0F6D0
:20512000000108F0B2FE0446BDF81A90494608F0DEFE019404EB0908BDF81A10404608F0C8
:20514000D6FEBDF80C60BDF808A0BDF81A70BDF814B0BDF8104001250120FFF73BFE0020AA
:2051600007F037F940F61000C4F20100C14405604C4402F0D5FA40F2A050C2F20000FF007B
:20518000006A834441F2E420C2F2000000684568404601994A463B46A8472078617840EA23
:2051A00001203040504506D040F2A050C2F20000006A8345E6DABDF81A10484606F0AAFF1F
:2051C000019806F07CFF07B0BDE8F08F70B5ADF5027D6C4620464FF4807106F027FA002819
:2051E0002ED400250DF2071630462946012208F000FE605D9DF807110140814220D10135D9
:20520000B5F5807FF0D10898D0B1009DC5B140A84FF60044C0F601042146042202F048F904
:205220004098411C18BF85420AD142AD694628464FF4807202F03CF920462946FFF720F875
:20524000002006F0CBFF0DF5027D70BD2DE9F04F85B041F28011C2F2000181460D7841F23E
:205260006070C2F20000073020F0070A002D41F27C10C2F2000018BF554600780090002414
:2052800041F2EC0BC2F2000B0DF10808002701955846FFF77BFD5FB155B141F28010C2F2C1
:2052A0000000296800784E19002818BF504608E041F28010C2F200000078002818BF50467D
:2052C000064641F27C12C2F20002A0EB0A011278002A44F20002C2F2000218BF881841F229
:2052E0002811C2F200010A68314613469AB100BF8B4203D05B68002BFAD10BE019B10B68F3
:2053000019448142F1D1404600210C2208F04DFF0DE000BF0E46404600210C2208F045FF81
:205320002EB10296D6E90010039100B10490584603F0D0FB0398D0B3E81902990F1A0ED031
:205340001034B9F1000F0AD108F0D7FD384608F0D4FD002008F0D1FD002008F0CEFD103455
:20536000049848B1017849B1411C00200A5C0130002AFBD103E000BF002702E00020471CED
:205380003C44B9F1000F0FD1029808F0B6FD039808F0B3FD012008F0B0FD384608F0ADFD86
:2053A0000498394606F0BBFEDDE9025770E7DDE90018A8EB0A00002944F20001C2F200011D
:2053C00018BF00EB010805EB070AD04505D1B9F1000F08BF08F09DFD12E01034B9F1000F15
:2053E0000ED1504608F089FDA8EB0A0008F085FD002008F082FD002008F07FFD08F089FDFA
:20540000204605B0BDE8F08F2DE9F04F8BB0044609A8082106F00AF9002004946063DDE95F
:205420000964A5B200F0A8FE854238BF2846B0F5805F88BF00F47F404EF24A21C0F6000106
:20544000039008F022FD089000B34FF6FF7024EA000816F0030034461CD02646C0F10404F9
:20546000A54238BF2C46089F3846214608F03FFD0498C169D1F808C00097314622464346C6
:20548000E047291BA0426FD1344404E04FF0FF36294672E02946002969D0CDF81C80029525
:2054A00041F28118C2F2000840F62C69C2F20009DDF810A0039E0691B14238BF0E46089841
:2054C000314608F03CFD4FF0000B05942146002498F80120C2EBC20209EBC20202F11407CE
:2054E000126900BF62B13B68002BA6EB0303A3EB0B0507D0402DF5D325F03F0502E000BF56
:20550000A6EB0B0514B14FF0FF341AE0DAF81C20089B97685B44009350462A46079B0C46DD
:20552000B8472146441B18BF4FF0FF34491922BFDAF834000130CAF8340040F62C69C2F26E
:205540000009AB44B345C3D1002C0699A1EB060118BF4FF0FF36002E0BD454B9059C3444EB
:205560000029A7D1029E0CE04FF0FF3605E02E4609E0002E58BF4FF0FF3611B1084605F08A
:20558000D3FF089810B1089806F099FD304608F0BAFC0BB0BDE8F08F70B5044691B140F2C6
:2055A000A055C2F20005286A461800BFE1692069096A8847002818BF70BD286A8642F5DA24
:2055C000002070BDE1692069096ABDE8704008472DE9F043D3B0054600260DF1070843AF58
:2055E00002AC00BF4046012106F020F89DF80700FF2804D0B8550136402EF3D14026E969C3
:205600002869D1F80C90394622463346C8479DF80710FF2905D0B100204606F07BFD0026D1
:20562000E0E744F82600042000EB8601204606F071FD53B0BDE8F0832DE9F04385B00646FC
:20564000002404941425CDE902450DF10700012105F0ECFF9DF8070090B30DF106050DF16B
:2056600008090DF1070703AC0DF110082846012105F0DCFF9DF80600032807D0022809D048
:2056800001280DD19DF80710404606E09DF80710484602E09DF80710204608F028FC03E0BE
:2056A0009DF8070005F040FF3846012105F0BEFF9DF807000028D9D1049CDDE9022500E0ED
:2056C0000022F16930694F6A29462346B84708F01AFC05B0BDE8F0832DE9F04786B004467D
:2056E0000025059501200490CDE902050DF10700012105F09BFF9DF8070000283CD00DF1F5
:2057000006050DF107060DF114080DF110090DF1080A03AF2846012105F088FF9DF80600D9
:205720000438072812D8DFE800F004090D11111111179DF80710404611E000BF9DF807105A
:2057400048460CE09DF80710504608E09DF8070005F0EAFE05E000BF9DF80710384608F066
:20576000C6FB3046012105F061FF9DF807000028D0D1059D039800E000206063E169206943
:205780008A6A2946904740F2A050C2F200000178013101700120FFF71DFBE16920694A6928
:2057A000029990470498FFF715FBE1692069C9698847044603F0EFFF204608F0A4FB06B023
:2057C000BDE8F0872DE9F04F91B001AC204600213C2208F0EAFC0DF10300012105F026FF6A
:2057E0000DF10200012105F021FF9DF8020000286DD004F1040804F1050B04F108090DF16C
:2058000001070DF102044EF25D2AC0F6000A00BF3846012105F00AFF9DF801000738032898
:2058200018D8DFE800F0021D21279DF8021000201090B9B310A805F0F9FE9DF840109DF869
:2058400041309DF842209DF84300000612041B022BE000BF9DF8020005F066FE2AE000BF4C
:205860009DF80210404602E09DF80210584608F03EFB1FE09DF80250082D28BF08254846E6
:20588000294608F034FB9DF80200461B12D03046514608F0FAFA0690A8B1314608F027FB1F
:2058A000079607E0002200230021194311430843019000BF2046012105F0B8FE9DF80200E9
:2058C0000028A5D103E09DF80200401BC4E79DF80340032C40F63C59C2F200092BD89DF883
:2058E0000850019F204606F0CEFC380EFF21B1EB176F18BF45EA00252846002108F043FB12
:205900000890C4EB041009EB800501A928463C2201F0CEFD41F27C00C2F2000000EB04141B
:2059200020460021102208F040FC2C63284606F00DFA9DF80340042CC4EB04104FF0000472
:2059400038BF09EB8004206928B9606918B106F0B6FB0020606111B0BDE8F08F2DE9F04326
:2059600083B0064602A80424042105F05FFE9DF808009DF8091004EB81014143C71D01EB4F
:20598000D70006F089FB04469DF80850A90000284BD09DF80990204608F0A9FA9DF80A00C5
:2059A00030B19DF80B103046FFF7F6FD002845D004EB850809FB05F008EB8005FF08284658
:2059C00000213A4608F0F1FBF16930694E6D9DF808109DF80920CDE90012214642462B4601
:2059E000B047002827D437B1284600BF017811BB0130013FFAD1012008F07FFA9DF80800C8
:205A00009DF8091048438100404606F088FB9DF808001F30460928460021324608F0C5FBD3
:205A20002846314606F07BFB0BE0084605F07CFD6FF0010003E04FF0FF3000E0002008F0C5
:205A40005CFA08F066FA14B1204606F038FB03B0BDE8F08300B50022411C24BF04211046E7
:205A6000C0EB001C40F63C53C2F2000303EB8C03383300BF53F828ECBEF1000F18BF1A70BE
:205A80003C3301308842A8BF00BDF3E710B59C4653032DD4437F0BB1C16826E0436963459F
:205AA00012D183689BB1D0F804E00EEBC30EAEF1040E00BF5EF8044C8C4214D9AEF1080ED0
:205AC000013BF7D1114610E04FF440110DE00168FF24C0F60164496BA1424FF4401108BF61
:205AE0004FF4700101E0DEF8001002F000520A43029B016844694A6064450CBF026940F22C
:205B0000FF320124A1F81140C1E9022C0B60007F087410BD2DE9F04F83B01C469146D0F8B1
:205B200000B08A46DBF8487007F0D9FC002835D440F2A055C2F200050DF1080800260194B4
:205B40009AF800207B695846012198477B685846002100229847286A00F1C8047B6858469D
:205B60000021424698479DF80A00C00704D1286AA042F3DD12E000BF7B68584602210022A7
:205B800098477B68584602214A469847019C013C09F104090AF1010AD1D101E04FF0FF3635
:205BA000304603B0BDE8F08F2DE9F84F9846144606688A46B56C07F092FC002832D440F2BF
:205BC000A057C2F20007EB4622686B693046022198476B699AF8000000F580323046012167
:205BE00098476B683046002100229847386A00F1C80900BF6B68304600215A4698479DF8BA
:205C00000200C00704D1386A4845F3DD0AE000BF0434B8F101080AF1010A04BF0020BDE8C6
:205C2000F88FD1E74FF0FF30BDE8F88F0068016D0139016518BF704741F22C1CC2F2000C4C
:205C4000002361461A460B681BB103F14C018342F8D1002A18BF02F14C0CC16CCCF80010BF
:205C600006F02DBA2DE9F8431746054601F0030440696E6C022807D0336806F1240207CA49
:205C800006F051F80220686104EB440006EB800000F1740900F1700800F16C0433686425DA
:205CA000D9F80020D8F80010206806F03CF83368F088C10800F00702595CD140C90706D020
:205CC000013D04BF4FF0FF30BDE8F883E8E727B1C11C184608F02DFA38600020BDE8F8835C
:205CE0002DE9F04115460446466C11F0030735D06069012807D0336806F1180207CA06F0BA
:205D000012F80120606107EB470006EB8004B18854F83C0FCA1C294607F0A3FD04F1080828
:205D2000271D3368642500BFD8F800203968206805F0F9FF70B93368B088C10800F007007A
:205D4000595C21FA00F0C00704BF0020BDE8F081013DE9D14FF0FF30BDE8F081336806F1B5
:205D6000300207CA05F0DFFFF06BB188CA1C294607F077FD336806F13C0207CA05F0D3FF91
:205D800000206061BDE8F0812DE9F04114460D4606464069776C022807D03B6807F124027E
:205DA00007CA05F0C0FF0220706105F0030000EB400007EB8005B98855F83C0FCA1C2146AB
:205DC00007F04FFD05F108082E1D3B68642400BFD8F800203168286805F0A5FF70B93B68C7
:205DE000B888C10800F00700595C21FA00F0C00704BF0020BDE8F081013CE9D14FF0FF30BE
:205E0000BDE8F0812DE9F14F9146406C0E46B0F8AA80B0F8A85000246FF00F07900717D0B6
:205E2000E80805F00701305CC840C0070BD1002BA3F1010A06DCE91C304608F07AF949F86B
:205E4000040B0134534645440137E9D316E000BFE80805F00701305CC840C0070BD1002BE4
:205E6000A3F1010B06DCE91C304608F062F949F8040B01345B4645440137E9D3009800682F
:205E8000A10007F014FD2046BDE8F88F2DE9F04F8FB00D46189F4FF00111002F08BF4FF0A3
:205EA000013109910121012F8B4608BF4FF0011B002F08BF4FF0013B002A00F031811E4630
:205EC0009146446801FA07F8B7F12001CDF8208058BF4FF000080023CDF804B0039000BFCB
:205EE0000493CDF8189090F812A0D0F8089029463A46199B07F02FFD059529EA0501DDF8B6
:205F00001890F9404D1CA94538BF4D46A10048BF4D46BB46012F079532D8BAF1000F2FD0F4
:205F2000002800F1FF800296741CDDF814A0039E14F8019CBBF1000F0AD0207849EA002945
:205F40000AF003002AF00301081A811C02E000BF8AF00301052005F059FF0746099809FBE4
:205F600000F1072005F052FF384331D4F0798006089858BF82444444013DD9D1AFE000BF19
:205F8000002800F1CF805F46BBF1020F08BF16F0030031D0741CDDF804B000BF14F8010C75
:205FA00057B1217840EA0120012F05D0617840EA0140A17840EA016000FB0BF1072005F0F5
:205FC00025FF002876DB4444013DE7D100258BE041F2E420C2F200000068D0F804A041F224
:205FE0004F30C2F2000041F25531C2F200010AAA3023D04774E000BF012DCBD900F090FD80
:020000040800F2
:2060000007460028029668D440F2FF10ADF834004FF0FF300C90344641F2E429C2F200099C
:206020000AAE00BF54F8040B01218DF82D1080EA104181EA112181EA111181EA910181EA5D
:2060400051013B2262F35F018DF82C100A90D9F80000D0F804A030460CA90DF136022E2392
:20606000D0479DF83B0000F00E00022804D000F057FD002830D40027013D012DD2D8206808
:2060800080EA104181EA112181EA111181EA910181EA510101F001018DF82C100A90D9F842
:2060A0000000D0F804A030460CA90DF136022123D04712E041F2E420C2F2000000684468C7
:2060C00041F24F30C2F2000041F25531C2F200010AAA3023A04707E00746002F22D4002580
:2060E000029EDDF818905F4606F0D8F90320002100F0A0FC0798401B17D4049B0344ADB916
:20610000DDF81CA003980AFA07F24468059DA10058BF1544B9EB0A0916447FF4E1AE05E0FF
:20612000002303E04FF0FF3300E0034618460FB0BDE8F08F38B50D46044608290CDB00BF1D
:206140002046FF210022082305F0C2F8A5F108000F2D0546F4DC00E028460128B8BF38BDE5
:20616000451C00BF204601210022012305F0B0F8013D012DF6DC38BD38B541F2EC00C2F2A1
:206180000000FEF703FE41F22810C2F2000000240068002528B1D0E900108D4238BF0D467E
:2061A000F8E741F2EC00C2F2000002F093FCB5F1080038BF204638BD38B50C46054641F2EF
:2061C000EC00C2F20000FEF7E1FD41F22810C2F20000006888B105F10F0121F0070141F23A
:2061E0002812C2F2000200BF03688B4207D80DD0024652F8040F0028F6D100240CE05B1AE3
:2062000043504318136042685A6001E043681360C0E9001400F1080441F2EC00C2F200002D
:2062200002F058FC204638BD0022C0E9001241F22812C2F20002116831B341F22812C2F23F
:206240000002814202D9134606E000BF0B4653F8041F09B18142F9D9416018601068A0B1B0
:20626000014651F8042F82B1D0F800C00CEB0003934207D1D2E900320A6003EB0C01016046
:20628000EEE700BF1046EBE71060704784B041F2EC00C2F2000006F0D0FC41F27C10C2F2DF
:2062A00000000124047041F28010C2F2000044F20001C2F20001047041F26070C2F20000B7
:2062C000073020F00700091AFFF7AEFF0420C4F201000421026861F31A6241F20407C4F27C
:2062E00002070260786940F00C00786140F60008C4F201084FF04430C8F8000044F644014E
:20630000C4F24441C8F8041044F24441C4F2844140F60445C4F20105C8F8001428604FF45E
:206320008060C8F810002026EE6044F6206000F055FB6868800604D4012181F3108830BFD4
:20634000FEE740F2E340C8F80C00AE60D8F8040040F60071CFF6F071084040F44C2040F070
:206360003500C8F8040041F28410C2F2000004700024029402A84FF60005C0F6010529465C
:20638000012201F095F80298042801D3FF2851D10294691C02A8012201F08AF80298032859
:2063A00001D3FF2846D10024029405F1AF0102A8012201F07DF80298FF283BD10294291D8F
:2063C00002A8042201F074F80298023810F1030F30D3029405F10D0102A8012201F068F8EE
:2063E0000298FF2801D0012824D1029405F1880102A8012201F05CF80298032801D3FF2806
:2064000018D10024029405F1890102A8012201F04FF80298022801D3FF280BD1029405F12D
:206420009A0102A8012201F043F80298652804D3FF2802D0284601F0E5F84FF48070C8F8A2
:20644000140041F27E11C2F2000101200870D8F800004FF20001C0F60F71084040F2044111
:20646000C4F240010843C8F8000041F20810C2F20000002400210C2207F097FE8DF8064051
:20648000691C0DF10700012201F012F89DF80700012805D0022840F0A88005F1080101E058
:2064A00005F5806102A8042201F002F8029805F0E9F940F2011041F2CC21C2F200014880F5
:2064C00040F62C45C2F200050024284600214FF4887207F06AFE4EF20520C0F60000C5F835
:2064E0000C014FF40070A5F808014FF0010A85F800A048F6CB60C0F60000C5F8AC0040F611
:206500003240A5F8720040F62C60C2F200000021E02207F04AFE40F69C76C2F200064FF0E1
:20652000040B41F2DC09C2F2000930460021182207F03BFEA6F814B0C6F80CA009EB0400B2
:20654000706004341836102CEFD1386820F480003860F86820F40000F8604CF2B750C0F656
:206560000000C5F8B40047F27F70C0F6000046F6A061C0F60001C5E92110B86940F40000A4
:20658000B86106F0FCF80026002006F0CAF840F62C61C2F200014FF00109088085F809909B
:2065A00001200021002206F0F2F8834641F24621C2F200010020402206F0E9F841F285115D
:2065C000C2F2000141F27F1AC2F2000A0A7852BB8AF8006081F8009005EB8601D1F8902012
:2065E000DAB10136052E1ED0F6E74EF24020C0F2010002900DF106002946012200F058FF19
:206600009DF80640029805F03DF9042CBFF451AF9DF8060000F201104DE748F2D722C0F63C
:206620000002C1F890206978AB7B4A1C6A7001EB410205EBC202FF2682F8221082F82160F9
:206640004FF6FF76A2F81F605FFA8BF609FA06F6C4B209FA04F426439683022B01D9002371
:2066600009E005EB83064EF2F614C0F6000434615E1CAE7305339AF8006006EB460641F2EA
:206680008117C2F20007BC1907F806B082F823304CF24363C0F600031363A170607001B1AA
:2066A0002B6341F21410C2F2000048F2DF31C0F60001FEF74BF99AF8000001308AF80000C2
:2066C00041F28110C2F2000040F62C61C2F200014078C0EBC00001EBC0004DF65B71C0F636
:2066E0000001C16041F2FC00C2F200004CF27921C0F60001FEF72AF900270DF1070607F1C4
:2067000050013046012205F07FFC9DF8070028B1FF2803D00137202FF1D125E04FF6DF70CE
:20672000C7F6FF7007421FD007F108004EF2A831C0F6000107F0A9FBB0B106464EF2C521B7
:20674000C0F60001062200F0B3FE5F20B071F01D50213A4605F058FCF0190021C17141F243
:20676000CC20C2F20000866041F2CC20C2F20000D5F88440C5F8BC0020688047226C42B1E6
:2067800000208DF8080002A9022090479DF8080028721020A8722069804741F2AA2AC2F21C
:2067A000000A40F2A057C2F20007002440F60C70C2F200000C300090A87A00F00300022856
:2067C00040F0E7804FF48070C8F8140041F27E10C2F20000012101709AF80000002840F029
:2067E000F080A87A00F00300022814D141F28110C2F200004078A97A01F0030102290AD1B7
:20680000C0EBC00040F62C61C2F2000101EBC000406A00286BDCA87A00F0030002282FD191
:2068200002A8002107F08BFB0028D5D401264FF0000BDDF8009040F63C50C2F20000584457
:206840000169A1B190F8381089B190F8391071B9D9F800103A6A42F210731944914206DD28
:20686000C169096D19B18847002808BF064609F124090BF13C0BBBF1F00FDCD1002EB0D034
:206880004FF0800080F3118800BF00BF41F20811C2F20001386A4968A1B9861C41F2081014
:2068A000C2F200004821324602F005FEB868C068301A0128FFF695AF4FF0800080F311888F
:2068C00000BF00BF41F20810C2F20000007A01281EBF41F20810C2F2000044607878002800
:2068E0007FF47FAF4FF0000080F3118879E7386A0DF10700012104F099FE00283FF56CAF81
:2069000041F2AB20C2F200009DF80760007860BBA6F1C700122820D8012181404CF2C012B3
:20692000114211D041F2AC20C2F20000007844F24021C0F20F0105F0C3FC012041F2AB21CB
:20694000C2F20001087014E00122C0F20202114205D1122801D10020F0E7052E05D141F2D5
:20696000AB21C2F20001012008701E2E02D3B82E32D96536F0B246F6E871C0F6000151F819
:206980002000804742F2C070C0F2090002F07CFA22E741F27E11C2F20001087890F0010008
:2069A00008704FF480700CBFC8F81000C8F8140041F2AB20C2F2000004703220FEF70AFA4C
:2069C000FAE68AF800401420FEF704FA41F2AB20C2F200000470EFE6FEF742FBDFF800F0FA
:2069E0002502002041F25410C2F2000001680029FCD04FF0FF30704741F25410C2F2000037
:206A000001680029FCD04FF0FF30704741F25410C2F2000001680029FCD04FF0FF30704725
:206A200041F25410C2F2000001680029FCD04FF0FF3070472DE9F04F91B0019100238DF8B8
:206A40001B304EF2D031C0F60001002202928DF80D30085C8DF80C0040F2A056C2F20006A4
:206A600041F2E425C2F20005306A00F1640A0DF10C0941F24238C2F2000804AF28684468BD
:206A8000484641463A460D23A0479DF811B00BF00700022803D1306A8245EFDA18E00428A6
:206AA00019D0012827D0029C022C21D02868D0F804C041F20D30C2F2000041F2EC21C2F2DC
:206AC000000107AA4FF48473E04701340294D5E76FF0010021E02868476841F24930C2F21C
:206AE000000041F25531C2F2000107AA3023B8474FF0FF3011E02868476808F102010DF18D
:206B0000170004AA2123B847019A2AB1CBF3C100049940EA81001060002011B0BDE8F08FBB
:206B20002DE9F04F8DB0BB20ADF80A00FF20ADF8080040F2A055C2F200050026286A00F1E4
:206B4000640941F2E424C2F200040DF10A080DF1080A0DF1060B00BF206847684046514693
:206B60005A460D23B8479DF8070000F00700022803D1286A8145EFDA15E0012816D0042864
:206B800016D0022E21D02068476841F20D30C2F2000041F2EC21C2F2000103AA4FF48473B7
:206BA000B8470136D8E76FF0010010E000200EE02068476841F24930C2F2000041F2553132
:206BC000C2F2000103AA3023B8474FF0FF300DB0BDE8F08F00B54FF0000E0023002907D489
:206BE000B0EB410F02D301334900F9D5002B0FD4013300BF88424FF0000C24BF4FF0010C45
:206C0000401A4CEA4E0E013B4908002BF2DC01E04FF0000E02B11060704600BD70B582B0E7
:206C20004FF0800080F3118800BF00BF40F20000C2F2000044F22131C1F2342140F2A0546F
:206C4000C2F20004016060780130607043F6FF70606241F2BC00C2F200000122C0E9062241
:206C60004EF60855CEF2000544F20000C0F60000286001A8EFF31081016072B6A96941F44E
:206C80007F01A961016881F31088227041F26030C2F200006946081AB0F1200206D041F24F
:206CA0006030C2F20000CD2107F07FFA4FF0800080F3118800BF00BF60780130607041F2DD
:206CC0000400C4F20200016801F00C01082941F20021C0F27A010ED102680368C2F38342B1
:206CE0000232DB0302D503689B0303D540F60011C0F23D01514341F2E822C2F200024EF2CC
:206D00003833C0F6000311600068C0F30310185C21FA00F0106044F6D351C1F26201A0FBB2
:206D200001014FF0FF3000EB9110B0F1807F00D3FEE74EF21001CEF2000100264860F0200F
:206D4000E8768E600720086044F20000C0F600002860E020E876607801386070607818B9FC
:206D60004FF0000080F3118840F2E055C2F2000505F5C064204600214C2207F016FA02206C
:206D800085F83D060620C5F81406C5F818064EF2C520C0F600004FF4C06105F5C56223C216
:206DA0002846CD214FF4C06207F0FFF946F28D20C0F6000005F5B56121F00701821CC1E917
:206DC00013024FF0807047F2C532C0F60002C1E910206FF0020048620E60C5F804162046F7
:206DE0000021FDF757FF4FF0800080F3118800BF00BF41F2A920C2F200000121017000F0AC
:206E0000EBFA002002B070BD20AA440001000000FFFF00000000000000000000C10200209E
:206E2000510100201BC6000800000000D77F0008D872000800000000817500081FC600085C
:206E40000FC60008017500081BC6000800000000D77F0008D8720008000000008175000840
:206E60001FC6000839760008C97500083BC600080000000017800008000000000000000080
:206E80004D760008DD7500083FC60008000000007F800008000000000000000000000000B9
:206EA000B7C6000800000000778400081B860008AB88000823C7000827C700082BC7000884
:206EC0003F890008BB8900083BC70008C78900085FC700086544000863C70008878A00080A
:206EE00000000000000000000000000051770008000000007FC7000800000000D7D90008BC
:206F0000C7DB0008155B0008A95B0008757600085FD50008CBB400084FD400080000000062
:206F200013B60008494E0008B3D5000823D60008A98B00086BCC00080000000000000000D5
:206F400000000000839800083BD7000800000000000000002D5C00083FD700080000000045
:206F6000D7D90008C7DB0008155B0008A95B0008757600085FD50008CBB400084FD400084A
:206F80000000000013B60008B7990008B3D5000823D600080000000003CD0008000000005F
:206FA00000000000000000004FCD00083BD7000800000000000000002D5C00083FD70008E4
:206FC0009D98000809540008D1550008E19A0008F7B10008F7D0000817D1000837D10008DF
:206FE00039560008D9560008B7CD0008BBCD0008D7CD0008FBCD00080FCE00082BCE000845
:2070000021B200085FCE0008B7CD0008D18E0008B7CD00084B9B0008B7CD0008BBCE0008D6
:207020000D910008B7CD0008B7CD0008B7CD0008B7CD0008B7CD0008B7CD0008B7CD0008D6
:20704000B7CD0008B7CD0008B7CD0008B7CD0008E7CE0008B7CD0008AF9B0008B7CD0008D9
:20706000B7CD0008B7CD0008B7CD0008B7CD0008B7CD0008B7CD0008B7CD000827CF00083E
:207080005D93000891500008B7CD0008C557000853D3000893B2000877CF0008DBCF0008E4
:2070A00045C4000887C400082FC4000871C40008239D0008A3A1000837A30008C9930008DA
:2070C000E1500008B7CD0008B7CD00088FA30008B7CD0008B7CD0008B7CD0008B7CD0008F5
:2070E000B7CD000819C400085BC40008FFCF000803D00008DDBF0008F3BF0008B7CD00085D
:20710000B7CD0008B7CD0008B7CD0008B7CD00087BB300083FA40008CD5100086BA50008E0
:2071200007D0000827A60008CDB80008B7CD000853AA0008B7CD0008B7CD00082BAD000885
:20714000B7CD0008E3AD00085BD00008B7CD0008B7CD0008B7CD0008B7CD0008B7CD00081C
:20716000B7CD0008B7CD0008B7CD0008B7CD0008B7CD000819950008B7CD0008335AEA8812
:207180009D98000809540008D1550008E19A0008F7B10008F7D0000817D1000837D100081D
:2071A00039560008D956000857D100086FD2000823AF0008B3D10008000000000000000022
:2071C0000BD400085D590008359C00080000000000000000F8E20008050000003BD4000833
:2071E000FEE20008050000003FD4000870E200080600000043D4000877E2000806000000A1
:2072000047D4000868E300080B0000004BD400087EE200080E000000D3B3000874E3000863
:207220001300000077B40008299D0008A9A1000800000000010000000300000002000000E2
:207240000000000089A50008655C000803B800084FD70008E15C0008895D000873B80008D8
:2072600073D70008AFB8000877BC0008ABD700085FB70008E5A6000889AA0008DBD70008E2
:2072800003BE0008FFBE000809BF000833D9000813BF00081DBF000827BF000859BF0008B0
:2072A0008BBF00088DBF000853D900085FB700088DAF00088D5E000857D90008E569000811
:2072C000F96900080D6A000800000000216A0008000000000000000007E0000843E0000818
:2072E0007FE00008A7E00008000000000000000000000000CFE00008F7E0000807E0000813
:2073000043E000087FE00008A7E00008000000000000000000000000034C20680434804776
:20732000FBE7FFF77BFCFEE7D8E3000808490A68002AFED41EF0040F0CBFEFF30880EFF35F
:20734000098042F000420A6081690231816170472CED00E049488168002904BF08B008E011
:20736000EFF30982A2F12802036882E8F84F83685A60434988478168B1B14A6892E8F84F09
:20738000036002F1280282F3098890693D493E4A884201DB904206DB13F47F4F03D14FF01F
:2073A000000181F311887047384839490968401A80F308884FF08071C161364981617FF016
:2073C000060E704701BC34488047204602BC88475DF804EB3149084731480068002807D002
:2073E000EFF314816A46734680E8FE0F2D4880472D4827490968401A203820F0070080F36A
:2074000008884FF000011D48417081F3118862B626494FF080520A60BFF34F8FBFF36F8F37
:20742000FEE71F48006890E8FE0F81F31488BFF36F8F95469E46704703680CB44FF0000172
:2074400041704FF0000181F3118818494FF080520A60BFF34F8FBFF36F8F4FF0800181F3DE
:2074600011880CBC0360704710494FF080520A60BFF34F8FBFF36F8F70470000A005002001
:207480001D8600083974000866740008401700209C6E0008D942000897950008C589000874
:2074A0006811002017CC00086017002004ED00E0844640EA010313F0030F18D18446202AD6
:2074C0000BD32DE9F007B1E8F807A0E8F807A2F12002202AF7D2BDE8F007042A07D351F8ED
:2074E000043B40F8043BA2F10402042AF7D22AB111F8013B00F8013B013AF9D16046704790
:207500002DE9F84F9946884640F60006C4F201062027802541F2301AC2F2000AB9F1080F80
:207520004C4628BF082498F800B0009477615FEACB700CBF75613561306820F07040306057
:20754000306840F040503060DAF8000000F014F83761DAF8000000F00FF8013C4FEA5B0B38
:20756000E4D10098B9EB000908F1010804BF0020BDE8F88FD2E70000DFF800F02502002039
:20758000F8B5052440F60005C4F20105802641F23017C2F2000700BF6E61286820F0704065
:2075A0002860286840F040502860386800F008F82E61386800F004F8013CEDD1F8BD000010
:2075C000DFF800F02502002080B500F003F8002008BD0000DFF800F03102002080B58C4677
:2075E00041F2741EC2F2000E0146DEF800000090604600F003F8002008BD0000DFF800F01A
:207600001100002041F23412C2F20002116809B100F00EB84FF2E071C1F6FF710988FF29AF
:207620004FF4806188BF4FF40061116000F000B8DFF800F0C502002080B5DB0000F002F87A
:20764000002008BDDFF800F03102002080B58C4641F2741EC2F2000E0146DEF800000090F0
:20766000DB00604600F002F8002008BDDFF800F0110000202DE9F04383B0064605688846BF
:20768000AF6C4EF63051CEF2000105F052FF7B69284603211F229847304605F020FF7B6800
:2076A00028460021002298477B6802AA2846032198477B6801AA28460321984708F001043E
:2076C00040F20309CAF25F0949EAC4080298C0F3C000844204D07B692846002142469847C8
:2076E00009F1060008EA00027B69284600219847B96A2846884741F27010C2F20000006815
:2077000008B100F009F8306803F021FF002858BFB47703B0BDE8F083DFF800F025020020D1
:2077200010B5062004F055FE40F60004C4F20104022020614FF47A7000F006F820680821B3
:2077400061F30710206010BDDFF800F025020020D0070ED1402A02D312F01F0009D1012052
:2077600041F29E21C2F200010A5C2AB101300828FAD1FF20C0B2704701220A54FAE741F218
:207780002011C2F2000108604EF21340CEF20000F02101700278103A02F0F00202704EF26C
:2077A0000012CEF200024FF40023136041704178103901F0F00141704FF4801010607047DC
:2077C0002DE9F04792B045F60047C4F20007786C41050DD4C10413D401052BD4010431D415
:2077E000800554BF6FF41E406FF40070786404E36FF48060786412B0BDE8F04700F064BBCE
:207800006FF480507864B86C010416D410F4404F00F0F382386C20F00C00386440F62C4050
:20782000C2F20000807A00F0FE0012B0BDE8F04700F058BD6FF40060786412B0BDE8F047CC
:2078400001F09BB910F00F0452D057F82460300440D557F8240040F68F71084047F824003E
:2078600040F6FC70C2F2000050F8340041F2A629C2F200090568002089F800006FF39F2543
:20788000402D28BF4025BDB1600041F23C01C2F2000151F8201041F28618C2F200084046B0
:2078A0002A4600F0ABFB41F29620C2F20000005D41462A4600F002FC41F28620C2F2000056
:2078C000005D38B199F8000020B920464FF44051FCF71CFE300640F1908248F60F7030400B
:2078E00047F8240041F28E20C2F20000005D0BE0C0060ED4386848F60F710840386041F22F
:207900008E20C2F20000007812B0BDE8F04701F0C0BC386840F68F710140396040F6FC712F
:20792000C2F20001096800050C686FF39F2412D4002C00F05D8241F23C00C2F20000016816
:207940006D462846224600F059FB00202946224600F0B4FB4CE241F23C00C2F2000001680A
:2079600010A8224600F04AFB40F62C46C2F20006F56E4DB110AC696820468847002800F015
:2079800037822D68002DF6D19DF84000D6F8848010F0600119D020294AD0402940F0258211
:2079A0007078002800F0218206F13007002510AC396829B120468847002800F019827078CA
:2079C000183701358542F3D30FE29DF841100B2942D8DFE811F00C0047000A024A000A02F3
:2079E0004F006C000A02BB00CD00DA00FB009DF84210002940F0F9819DF84310002940F068
:207A0000F4819DF84610022940F0EF819DF84710002940F0EA8100F00F00022800F0F881F9
:207A2000012800F00A82002840F0DF81707B0DE271789DF84400884280F0D78100EB400090
:207A400006EBC000C16A002900F0CF8110A88847002840F0CA81CBE1302900F0C98131291E
:207A600022D0C2E110A8002101E010A8012104F0FEFFBDE1307A9DF84240002800F0E8800D
:207A8000D8F81C1020468847002C204618BF0120B17A01F0FB0141EA800000F023FCF472F3
:207AA000307A012840F0A48105F081F8A0E19DF84300032800F0DA80022800F0EF800128B0
:207AC00040F09381D8F81800804741F2C614C2F200044FF48971218031792171B6F8051011
:207AE000A4F8051040F62C61C2F2000110F00400097818BF0921E171B6F80811B1F5047F95
:207B00000A4688BF4FF40472002818BF0A466280D6F8BC000188218140886081D6F8AC000C
:207B2000804740F20121E1812073000A6073D6F8BC000121C0686174002818BF03202074F9
:207B400041F2C610C2F200000078EDE040F62C60C2F2000001216A46C0E907214176002132
:207B600081758182B07AC0F340008DF800002AE09DF84200002871D0012840F0368105F01B
:207B800016F8B07A40F002006DE09DF84200002840F02B819DF84600012840F02681B07A4E
:207BA00000F00600062840F0208140F62C60C2F2000001216A46C0E90721417600218175E9
:207BC00081828DF80010D8F83010C8E0B07A00F00600062840F009819DF844A07078824525
:207BE00000F203819DF84390B9F1000F40F0FD809DF8428004F0DBFF307802281ED340F623
:207C00002C60C2F2000000F14007012500243C70D6F88400026A284600219047D6F8840080
:207C2000C16B09B12846884728464FF0FF3104F016FE3837013530788542E8D3D6F8B820C7
:207C4000002A00F0D58048EA092150469047CFE004F0ADFF44F08000F072C9E004F0A7FF44
:207C6000B07A00F0FD0000F03DFBC1E09DF84210042900F277804EF2CC20C0F60000DFE87E
:207C800001F003797D818B0041F2C610C2F2000040F20431C0F20941016051E741F2C61923
:207CA000C2F2000940F20920C9F8000040F20140A9F805007078317B89F8040041F0800008
:207CC00089F807008020CDE90109D8F81800804706F17301400758BF06F17201087889F8D9
:207CE000080009200090D6F88C0018B1426869460020904706F11C016846FCF79DFEB078D8
:207D000070B106F1340500276C46297821B9291D2046FCF791FEB0781C3501378742F4D34F
:207D20000098A9F8020080B240F62C61C2F2000141F2C612C2F2000201234B7600238B8288
:207D4000BDF84630CA61984238BF03460B624FF0000038BF01208875D6F88400016B002014
:207D6000884745E0481FB27B90420FD206EB8000006910E0D6F8BC0040680CE0D6F8BC0056
:207D8000806808E0D6F8BC00C06804E0D6F8A8205AB30846904730B3017889B3421C00219E
:207DA000535C0131002BFBD141F2C612C2F2000203235370022303EB4103137000293FF40B
:207DC000BFAE0227002300257F2F03D90135A942FAD1B5E6445DD45501D18027F6E7BC18C0
:207DE00002376370F2E7D6F88480D8F82400804700204FF44051FCF789FB12B0BDE8F087C8
:207E000041F2C610C2F2000040F20231018097E6B07A80079DF8440001D40028E5D1FCF712
:207E2000EBFD0028E1D4C0EBC00040F62C61C2F2000101EBC000007A08E0B07A8007D4D532
:207E400070789DF844108142CFD2002041F2C611C2F2000100224A70087040F62C60C2F244
:207E60000000C161022101620121417682758282A9E600B541F2441CC2F2000C43F60001B5
:207E8000C4F20101DCF800200B888B88DAB141F2381EC2F2000EDEF80000411CCEF80010B1
:207EA0000370013A0DD141F24010C2F2000000210268016041F23C10C2F200000068CEF8B2
:207EC0000000CCF8002000BD70B545F60041C4F200014FF41C4008640020086541F25C1E64
:207EE000C2F2000E4FF0400CCEF800C040F6FC7CC2F2000C41F23C02C2F20002002300BF38
:207F00004CF8230042F823000133102BF8D1DEF80000DEF800304033CEF80030DEF800301A
:207F20000B6D46F20404C4F2000404EB43035860586801F5806303EB40001060086D04EB47
:207F400040004FF4044540F8085FDEF80050DEF800604036CEF80060CCF80000DEF8000024
:207F6000086D43F8105053F8100003EB40005060086D402244F8102004EB4000CCF804007E
:207F800043F2302008608020C86440F62C40C2F200004FF0000C827A80F80BC00278022AA2
:207FA0000CD398BF0222013A40F62C63C2F20003403300BF03F838CB013AFBD190F80AC027
:207FC000427B02F0010242730CF010000830BDE8704000F087B940F60000C4F20100202143
:207FE000016101684FF6FF72C0F60F72114041F0804141F44011016000207047022A06D3C3
:020000040800F2
:2080000051F8043B20F8023B023A012AF8D80AB109680170704740F60000C4F201002121C9
:2080200001614FF40401016101684FF20002C0F60F72114040F28332C3F23002114301607D
:20804000022101614168082262F30B2141604FF480610161002070470146C0684A7E0138D9
:20806000D8BF0020002A08BF70470132203100BF51F8083B1844013A012AF9DC704740F64E
:208080000000C4F201004FF40011016101684FF20002C0F60F72114040F28442C3F2300260
:2080A00011430160022101614168082262F30B2141604FF480610161002070472DE9F04FDF
:2080C00085B014468B46002846D08246C0EBC00040F62C61C2F2000101EBC005A846049024
:2080E00058F80C2F12B1584621469047A94659F8100F002846D02E46274656F8141FA14274
:2081000098BF37686FB159463A46FFF7D1F9D9F800003844C9F800003068C01B3060BB445A
:20812000E41B306810B198F80E0058B369895046FCF722FC0026C9F80060687EC00709D1D7
:2081400040F62C40C2F20000D0F88400816A504688472E76092716E040F62C46C2F2000601
:20816000F07B60B1002700BF06EB87014A6F1AB1584621469047F07B01378742F4D305B0DC
:20818000BDE8F08F0127002C4AD0CDF80CA0CDE9017555F8240FA846A5F1080958F8041D2A
:2081A0000E1A05F1040A00BFDAF800201044421A38BF02461019884288BF0846871AA742E1
:2081C00028BF2746D9F80000104459463A46FFF76FF9286838442860F61BE41B03D0BB4433
:2081E000D8F80010E0E7DDE90175687EC007039808D0049940F62C62C2F2000232F83110FA
:208200008E420DD22C4614F8181F49B140F62C41C2F20001D1F88410896A884700202070D9
:20822000686B394605B0BDE8F04FFCF7B7BA10B540F2A054C2F20004207801302070206B68
:2082400020B10120607184F834001AE0206A04F124030ECB01300132206243F10003C4E968
:208260000A23401A5CBF01206071A06848B190F83C1031B1013980F83C10080604BF0120C3
:2082800020714FF0800080F3118800BF00BF2078012803D1606808B1FFF7E6F82078013849
:2082A00020704FF0000080F3118810BD00B5417E02290DD3013100F11C039C46DA685CF8DD
:2082C00008EFC3E900E2013902296346F6DC417E0139417600BD41F28510C2F2000000212F
:2082E000017070472DE9F04F83B040F62C46C2F20006D6F8844096F80A80804502D103B077
:20830000BDE8F08F834610F0020508F002093BD0B9F1000F38D100953078022840F62C6A66
:20832000C2F2000A0AD30AF138050127A168284688473835013730788742F7D3E06880470D
:208340003078022817D30AF1400701254FF0000A87F800A0D6F88400026A2846002190476D
:20836000D6F88400C16B09B1284688473837013530788542ECD3226C009D2AB101208DF809
:20838000040001A9002090474DB9B9F1000F06D0226C22B100208DF8040001A9904786F89A
:2083A0000AB048EA0B0010F0060F0CD03078022809D3012528464FF0FF3104F050FA0135B0
:2083C00030788542F6D3D6F8E05000BF002D96D06A6812B1A868594690472D68F6E7480739
:2083E00048BF704741F28110C2F2000040F62C61C2F200010078C0EBC00001EBC00000211F
:20840000016170472DE9F04182B00C4600EB400040F69C71C2F2000101EBC00808F1080799
:2084200040F2A056C2F2000601AD00BF3078013030704FF0800080F3118800BF00BF00BF6C
:20844000386858B94046402104F0C5FB4FF0800080F3118800BF00BFF2E700BF40462946FA
:20846000FCF760FC01F097F90198A04204BF02B0BDE8F081DAE72DE9F041C37913F07F045C
:208480005AB24FF0000C0CD003F00F05DB0943EA450340F62C45C2F200052B4493F8C060CF
:2084A00000E0002683790025032B08BF4FF4C065012B08BF4FF480652B1945F60045C4F2A3
:2084C000000545F8243041F25C13C2F20003002AD3F8008000881F6807441F601B682A6D45
:2084E00046F20401C4F2000105F580631F46A8BF0F1D48BF4FF0010C02EBC4024CEA440C27
:2085000047F8128057F8122003EB420241F23C03C2F2000343F82C202A6D02EBC4024FEAA4
:20852000420222DB3F280A444FF0FF3303EB501338BF43084FF60040C0F2FF3000EA83204E
:2085400028BF40F4004042F8080F40F6FC70C2F2000040F82C2020464FF40051FBF7D6FFD4
:2085600041F29620C2F200000FE05050501840F6FC72C2F2000242F82C0020462021FBF70E
:20858000A3FF41F28E20C2F200000655BDE8F0812DE9F04782B09246894600EB400040F6AC
:2085A0009C71C2F2000101EBC00808F1080540F2A054C2F2000401AE216A4FF0800080F3F5
:2085C000118800BF00BF2868A8B901EB090700BF404640213A4600F06EFFA068C068381A92
:2085E000012816DB4FF0800080F3118800BF00BF28680028ECD0207801302070404631464E
:20860000FCF790FB01F0C7F801985045D4D1002000E0012002B0BDE8F087704770B540F25C
:20862000A054C2F2000400256570012020704FF0800080F3118800BF00BFA06B50B16178B5
:2086400001316170804784F834502563A5636078013860704FF0000080F3118841F26030D1
:20866000C2F200000078CD2802D07D20FCF7D4FBA568ADB1286B0078CD2804D07820FCF7DE
:20868000CBFBA56865B1286C50B10168686888476D6C00BF25B12968096888476D68F9E760
:2086A0002079002836D04FF0800080F3118800BF00BF00202071A1684FF0000080F31188A5
:2086C00021B3086810B34B6942699A421ED100BF0246006810B146699E42F9D04FF0800022
:2086E00080F3118800BF00BF20698842086808BF20614B6A436218604A621068086000B1D6
:208700004162116092F83D0082F83C004FF0000080F31188A06820B1017C11B9816B01313F
:2087200081632069002838D04FF0800080F3118800BF00BF2569002D35D02E7C002E32D0B9
:2087400070070FD5216AE868411A002904DD616A411A48BF606205E0284600F0ADF8287C03
:20876000D8B100BF06F0FB00102809D1A86880684068017C21B96969406988420DD100BFD5
:20878000286820614FF0000080F311884FF0800080F3118800BF00BFCCE74FF0800080F34F
:2087A000118800BF00BF6079002844D0002600BF6671206A00F180406062E16909B120466A
:2087C00088474FF0000080F31188E5684FF0800080F3118800BF00BF55B3206920B16869B6
:2087E00021694969884223D3287C400714D5216AE868411A00290BDC284600F05DF84FF071
:20880000800080F3118800BF00BF287C80B1E868616A411A48BF60624FF0000080F31188EF
:208820002D684FF0800080F3118800BF00BFD3E760790028BCD100206060216951B320691B
:20884000007C98B12069806880684568686A29680160296801B14862206901214069617077
:20886000686121692846FCF715FA25612569A560286C50B14168686888476D6C2DB12968F7
:20888000496801B188476D68F8E7A068416B0131416305E02070A0604FF0000080F31188A8
:2088A00040F2A050C2F2000070BD40F62C40C2F20000D0F8B400004738B5826862B140F280
:2088C000A051C2F20001096AC160D2E9001201B14A60002383601160017C11F003010174C7
:2088E00018D140F2A055C2F20005296919B14B6942699A4214D92861287810B10120687147
:2089000006E0012028702846FEF796FD00202870687800B138BD4FF0000080F3118838BD44
:208920008142E9D09A4218BF38BD03461B68002BEED05C69A242EBD18B42F7D1DBE7A0B151
:20894000C0EBC00040F62C62C2F2000202EBC000C27902F07F00120608D4002914BF4FF4A6
:2089600080514FF40051FBF7D1BD7047002914BF10212021FBF7A8BD10B504464FF08000C8
:2089800080F3118800BF00BF206850B12068C068FFF792FF4FF0800080F3118800BF00BF44
:2089A000F2E740F2A050C2F20000407800B110BD4FF0000080F3118810BD002041F2100156
:2089C000FBF782BDFEE710B5C0EBC00040F62C61C2F2000101EBC000C07900F07F0420461B
:2089E0004FF44051FBF792FD41F28620C2F200000121015541F2A620C2F20000017010BD32
:208A000010B540F2A053C2F2000302461878013018704FF0800080F3118800BF00BF9468DF
:208A2000D06884421CD2D2F804E0D2F808C01469A444BCEB000438BF6446908A04FB00E45C
:208A400011F801CB04F801CB0138F9D1906801309060906801280BD11046FFF78DFF0DE09B
:208A6000587818B94FF0000080F31188012406E0587818B94FF0000080F31188002400F0FF
:208A80008AFE204610BDC0EBC00040F62C61C2F2000101EBC00145F60040C4F20000CA7917
:208AA00002F07F01120650F8212008D4530458BF704740F60F731A404CF2800306E0530690
:208AC00007D540F60F731A4048F2C0031A4340F8212070472DE9F04140F2A056C2F20006F5
:208AE0000446307801303070207A01382072207A00283ED16068002838D0D0E905C294452C
:208B000034D041F26411C2F200010B68002100BFA3B1A34202D05D68854201D0DB68F7E718
:208B20001D6800BF002DF9D0D5F80C802D68D8F81470974284BF41463A46F3E7624515D030
:208B40004FF0800080F3118800BF00BF6068436A07681F60056805B16B624261FCF79AF851
:208B6000707818B94FF0000080F311882046FFF703FFBDE8F04100F00EBE80B540F62C402A
:208B8000C2F20000807A40F00100FFF7ABFB45F64040C4F20000016841F00801016001687C
:208BA00041F00401016008BD2DE9F04F8FB0042A03D31D460E46990704D0002108460FB068
:208BC000BDE8F08F17460168D0F810A00491D1F848900A902AEA0602012101EB9201B942AB
:208BE00014D211F00F0B11D0189A022161F30302009231465A462B4604F013FD002800F12E
:208C00001B8105EB8B0506EB8B0601E04FF0000BA7EB0B04102CC0F00D81CDE901976FEAC9
